:020000040800F2
:10000000605300200D030008AF3C0008373900089A
:10001000AD3C00083D1A000825460008000000001D
:100020000000000000000000000000004D02000879
:10003000E51A000800000000A9020008D53F0008EA
:1000400027030008270300082703000827030008E8
:1000500027030008270300082703000827030008D8
:1000600027030008270300082703000827030008C8
:1000700027030008270300082703000827030008B8
:1000800027030008270300082703000827030008A8
:100090002703000827030008270300082703000898
:1000A00027030008954000082703000827030008DD
:1000B000A1400008270300082703000827030008C1
:1000C0002703000827030008270300082703000868
:1000D00027030008D9450008270300082703000864
:1000E0002703000827030008270300082703000848
:1000F0002703000827030008270300082703000838
:100100002703000827030008270300082703000827
:100110002703000827030008270300082703000817
:100120002703000827030008270300082703000807
:1001300027030008270300082703000827030008F7
:1001400027030008270300082703000827030008E7
:1001500027030008270300082703000827030008D7
:1001600027030008270300082703000827030008C7
:1001700027030008270300082703000800000000E9
:10018000270300082703000800F002F800F04FF8EA
:100190000AA090E8000C82448344AAF10107DA45E2
:1001A00001D100F044F8AFF2090EBAE80F0013F0E5
:1001B000010F18BFFB1A43F001031847286700001E
:1001C00048670000103A24BF78C878C1FAD85207AF
:1001D00024BF30C830C144BF04680C6070470000C1
:1001E0000023002400250026103A28BF78C1FBD840
:1001F000520728BF30C148BF0B607047662906F020
:100200008F82642900F08481732900F0E18400204A
:1002100070471FB506F07FFA00F012FD04000020C1
:10022000002106F0EBF9E0601FBD10B510BD00F035
:1002300023FE1146FFF7EDFF04F046FA00F041FE01
:1002400003B4FFF7F2FF03BC04F015FA2C4B196856
:100250000868B0E8F04F80F30988BFF36F8F4FF064
:10026000000080F311887047000000000848006813
:10027000006880F308884FF0000080F3148862B6AD
:1002800061B6BFF34F8FBFF36F8F00DF00BF00BFBA
:1002900008ED00E0DFF80C00016841F47001016036
:1002A000704700BF88ED00E0EFF30980BFF36F8F68
:1002B000134B1A681EF0100F08BF20ED108A20E9BA
:1002C000F04F106009B44FF0500080F31188BFF375
:1002D0004F8FBFF36F8F05F03DFA4FF0000080F3B2
:1002E000118809BC19680868B0E8F04F1EF0100FBB
:1002F00008BFB0EC108A80F30988BFF36F8F704796
:1003000038000020EFF3058070470000094880475F
:1003100009480047FEE7FEE7FEE7FEE7FEE7FEE7E7
:10032000FEE7FEE7FEE7FEE704480549054A064BFF
:10033000704700008540000889010008604D0020DA
:1003400060530020604F0020604F0020704753EA48
:10035000020C00F069802DE9F04B4FF00006002BF5
:100360001FBFB3FA83F503FA05F424FA05F65E40DD
:1003700012BF1643B2FA82F502FA05F4C5F1200560
:100380001EBF22FA05FC44EA0C04203556EA044C50
:100390004FEA144418BF641C4FF000084FF00009E6
:1003A000904271EB030C39D3002919BFB1FA81F7E0
:1003B00001FA07F6B0FA80F700FA07F6C7F120074E
:1003C0001EBF20FA07FC46EA0C062037B6FBF4FCF9
:1003D000A7EB0507103F07F01F0BCBF120060CFA27
:1003E0000BFB2CFA06F644BFB3460026202FA4BF11
:1003F0005E464FF0000B5BEA060C08BF4FF0010BA6
:1004000019EB0B09ABFB027C48EB0608C01B06FB93
:1004100002CC0BFB03CC71EB0C01C1E70B4602468F
:1004200041464846BDE8F08B13B54FF000004FF051
:100430000001AFF30080BDE81C4070470FB40449D1
:1004400010B503AA029800F0C7FB10BC5DF814FBBE
:10045000240000202DE9F0410E46044600202062D1
:100460002046E168884730B3252805D0D4E901212A
:100470009047206A401CF2E7E16820460027884741
:10048000050018D0A5F14100192802D820354FF4F5
:1004900000673246294620462760FFF7AFFE40B18D
:1004A000012804D0F61D26F007060836D8E7361DC9
:1004B000D6E72846DAE7206ABDE8F08170B50C4639
:1004C0000546012A05D02878800600D5EA69002370
:1004D00002E0012305E05B1C934202D2E05C0028AD
:1004E000F9D1A869E618C01AA861286A18442862D8
:1004F0002846AFF3008004E0D5E9012114F8010B90
:100500009047B442F8D32846AFF3008070BD000096
:100510002DE9F0410646002410687529314616A5DC
:1005200010D0AFF30080002802DA404213A507E0A4
:1005300031688A0701D512A502E0490704D511A543
:10054000012401E0AFF3008000210A2206F1240714
:1005500009E0B0FBF2FCB0FBF2F302FB1C00303010
:1005600078541846491C0028F3D123462A463046C1
:10057000BDE8F04100F0B2B8000000002D0000001E
:100580002B00000020000000032A40F2308010F011
:10059000030C00F0158011F8013BBCF1020F62441E
:1005A00098BF11F801CB00F8013B38BF11F8013BAF
:1005B000A2F1040298BF00F801CB38BF00F8013B5C
:1005C00011F0030300F02580083AC0F0088051F8CC
:1005D000043B083A51F804CBA0E80810F5E7121DD7
:1005E0005CBF51F8043B40F8043BAFF30080D207F6
:1005F00024BF11F8013B11F801CB48BF11F8012BC2
:1006000024BF00F8013B00F801CB48BF00F8012BE4
:10061000704710B5203AC0F00B80B1E81850203A6E
:10062000A0E81850B1E81850A0E81850BFF4F5AF92
:100630005FEA027C24BFB1E81850A0E8185044BF1C
:1006400018C918C0BDE810405FEA827C24BF51F889
:10065000043B40F8043B08BF7047D20728BF31F87D
:10066000023B48BF11F8012B28BF20F8023B48BFCE
:1006700000F8012B704702F0FF0343EA032242EA2D
:10068000024200F0BDBA4FF0000200B51346944696
:100690009646203922BFA0E80C50A0E80C50B1F1DA
:1006A0002001BFF4F7AF090728BFA0E80C5048BFEE
:1006B0000CC05DF804EB890028BF40F8042B08BF8C
:1006C000704748BF20F8022B11F0804F18BF00F888
:1006D000012B704770477047704770472DE9F0470E
:1006E0000D4699469246044600F1240801688806A2
:1006F00004D5E06921F01001216000E00120A8424A
:1007000001DD471B00E00027A1697A1902EB09000F
:10071000081AA0612078C00602D42046AFF30080FA
:10072000002608E0D4E901211AF806009047206A63
:10073000401C761C20624E45F4DB2078C0060AD5AA
:100740002046AFF3008006E0D4E901213020904735
:10075000206A401C2062381EA7F10107F4DC07E084
:10076000D4E9012118F805009047206A401C206256
:10077000281EA5F10105F3DC2046AFF300802078A8
:10078000000602D50220BDE8F0870120FBE7704794
:100790002DE9FF4F0C461E464FF0FF378BB0D2E9D4
:1007A0000001DDF860800A908A46C1F30A5505B958
:1007B0003D46002108464FF00000BAF1000F00F45A
:1007C000400005DA00EB80004FF4400101EA5000E0
:1007D0004FEA9059B9F1010F00DDB9460A9850EA85
:1007E0004A000ED044F61050A5F2FF3545432F14B1
:1007F000B8F1000F1ED07542291E1EDDC9F100029E
:100800001CE0B8F1010F4FF0000001D0302103E0EF
:10081000F24305E02154401CB042FBDB304600228D
:10082000002121540B99C1F80880C1E900200FB0C4
:10083000BDE8F08FBD1B6D1CDEE74A4600DA694259
:1008400006A800F09FFA06AB93E8070003AB83E825
:10085000070050460A9900F07DFB8DE80700A0F5DF
:1008600000501F3800900398002D0ADD42F21F014E
:100870004A460844002303A90390684600F0E6FDB9
:1008800009E0A0F500504A461F38002303A9039051
:10089000684600F0F0FD8DE807000004000C03D06E
:1008A0004FF0FF30410800E01046B8F1000F03D0D0
:1008B0000022009215461EE0751E05D400F0C4F912
:1008C000303262556D1EF9D5B3460122084302D07D
:1008D00000227F1C04E02078302801D100227F1EF6
:1008E000002A099784D01DE0112D07DA00F0ACF939
:1008F000303262556D1C50EA0102F5D1084302D036
:100900000098C8B10EE00021681E05E0235C625C1F
:1009100063542254401E491C8142F7DBAB46A81B9E
:10092000401E0990002004F80B000B98099AC0F8AB
:100930000880C0E9002B7AE711264FF0000857E73E
:100940002DE9F04F88460446D21D22F0070191B0F0
:10095000D1E90001CDE90A0103F065FE02460B98DA
:10096000C00F01D02D2007E02068810701D52B2082
:1009700002E0202101EAC000032A099001D0072AE1
:1009800005DB03464146204600F0BCF90BE1207828
:10099000800601D5E06900E00620B8F1650F8146C8
:1009A00006D0B8F1660F18D0B8F1670F70D131E0FA
:1009B0000020B9F1110F009001DB112301E009F1D2
:1009C00001030AAA01A90CA8FFF7E2FEDDE90C70F9
:1009D000002609F10105834647E001204B460090BF
:1009E0004FF000470AAA01A90CA8FFF7D1FEDDE9E4
:1009F0000DB00C995D46002610B909F101000D18E3
:100A0000B9EB050003D4C0F1FF3609F10105A5EBF0
:100A100009002BE0B9F1010F01DA4FF001090020C4
:100A2000B9F1110F0090484601DD112300E00346A3
:100A30000AAA01A90CA8FFF7ABFEDDE90C704D4630
:100A400000268346207800070AD4AB4500DA5D46CD
:100A500001A8012D04DD411911F8011C302907D02E
:100A60004F4502DA17F1040F04DA012082460FE045
:100A70006D1EEEE7002F02DCED1B3E4403E0781C08
:100A8000A84200DD7D1CB81B00F1010A4FF00047B1
:100A90002078000703D4AA4501DB4FF0FF3A00217C
:100AA000B7F1004F0DF143088DF8431024D0022018
:100AB0002B23002F01DA7F422D230A21021EA0F1F1
:100AC000010000DC5FB197FBF1FC97FBF1F201FB49
:100AD0001C7C17460CF1300C08F801CDEEE7A8F1AC
:100AE000010003702188090501D5452100E0652139
:100AF000A0F1010800F8011C09980FA9A1EB080753
:100B0000FF1D00B10120411901EBEA70A1693844D1
:100B1000081A401EA0612078C00602D42046AFF318
:100B20000080099828B1D4E901219047206A401C2F
:100B300020622078C00622D52046AFF300801EE058
:100B4000002E04DBB34502DD01A8805D00E030200B
:100B5000D4E901219047206A401C2062761CAAF14A
:100B600001005FEA000A0AD100F06AF8C068016873
:100B7000405CD4E901219047206A401C2062281E75
:100B8000A5F10105DCDC07E0D4E9012118F8010B2F
:100B90009047206A401C2062381EA7F10107F3DC51
:100BA0002046AFF30080032011B041E610B5436941
:100BB00013B1AFF3008001E0FFF780FC012010BD0E
:100BC000127800F124010A7000224A700122EDE738
:100BD00011684FF0FF32E9E7074B70B50D467B44D3
:100BE00000F07DF80446284600F03EF910B14FF0C1
:100BF000FF3070BD204670BDD33A00004FF00002B8
:100C00000429C0F0128010F0030C3FF43EADCCF18B
:100C1000040CBCF1020F18BF00F8012BA8BF20F88C
:100C2000022BA1EB0C01FFF730BD5FEAC17C24BFB2
:100C300000F8012B00F8012B48BF00F8012B70478A
:100C400000487047204D002030B5B0F10A024FEA4D
:100C5000900E71F100034EEA817EB0EB0E0061EB65
:100C600091014FEA101E4EEA017E10EB0E0041EB9F
:100C700011114FEA102E4EEA016E10EB0E0041EBFF
:100C800011214FEA104E4EEA014E10EB0E0041EBDF
:100C90001141401841F100014FEAD00040EA417093
:100CA0004FEAD10110EB80054FEA810444EA9074C9
:100CB00044EB01046D1944EB0404521BA3414FF0B3
:100CC000000348BF0A3200D530BD401C41F100018D
:100CD00030BD000001694A1C02610878704700B508
:100CE0008FB0CDE901310021059105497944CDE965
:100CF000031011466846FFF7ADFB0FB000BD0000C2
:100D0000E5FFFFFF2DE9F0411F4604460326016879
:100D1000072A01F4006004DB08B116A505E016A55A
:100D200003E008B115A500E015A521F01000206032
:100D3000A069C01EA0610FB1401EA0612046AFF3A4
:100D400000804FB1D4E9012138469047206A401C09
:100D50002062C01C206206E0206AFAE7D4E9012183
:100D600015F8010B9047761EF8D22046AFF30080AD
:100D7000BDE8F0814E414E006E616E00494E460066
:100D8000696E66002DE9F047814616468AB03548FF
:100D900078440DC88DE80D0032487844801C03ACBF
:100DA0000DC884E80D0041F69B300844372190FBC4
:100DB000F1F290FBF1F5A5F1800501FB12041B3C5B
:100DC00002D56442012000E00020DFF898A08046B0
:100DD0000027FA44AAF1BE0A0EE0E0070AD0324624
:100DE000684607EB470101230AEB810100F043FB52
:100DF0008DE8070064107F1C002CEED1194F7F4452
:100E0000AE3F19E0E80715D007EB04100DF1180A02
:100E100090E80E008AE80E00C068F04201D19819EF
:100E200008903246012306A903A800F024FB03AB77
:100E300083E807006D10641C002DE3D14FF001031F
:100E400032466946B8F1000F03A802D000F0FEFA5E
:100E500001E000F010FBC9E90001C9F808200AB060
:100E6000BDE8F087005B0000007B00F08000704769
:100E700000487047004D00207546FFF7F9FFAE4669
:100E800005006946534620F00700854618B020B596
:100E9000FFF74AFABDE820404FF000064FF0000788
:100EA0004FF000084FF0000B21F00701AC46ACE812
:100EB000C009ACE8C009ACE8C009ACE8C0098D467F
:100EC000704710B50446AFF300802046BDE81040DF
:100ED000FFF7B6B94FF0013C50F8042B51F8043B32
:100EE0009A4221D1A2EB0C03934313EACC1317D1FE
:100EF00050F8042B51F8043B9A4215D1A2EB0C0395
:100F0000934313EACC130BD150F8042B51F8043B54
:100F10009A4209D1A2EB0C03934313EACC13DBD022
:100F20004FF00000704700BFD01A01BAB1FA81F14A
:100F300001F0180122FA01F0CB40C1F12001DBB22F
:100F4000C0B2C01A2CFA01F3D11A914311EAC311AD
:100F5000E6D170475FEA400C08BF91F0000F4FEAFE
:100F60008C234FEAC12243EA51514FEA1C5018BF6B
:100F700000F5F0404FEA300018BF41F000415FEA51
:100F80006C5C00F02980BCF1FF3F08BF40F080405E
:100F90007047130C06BF12044FF0100C4FF0000CFA
:100FA000130E04BF12020CF1080C130F04BF120140
:100FB0000CF1040C930F04BF92000CF1020CD30F40
:100FC00004BF52000CF1010C11464FF00002A0F1D9
:100FD0001F00A0EB0C00704711F0004F08BF7047D6
:100FE00031F000413FF4D5AF0B0C06BF09044FF0C0
:100FF000100C4FF0000C0B0E04BF09020CF1080C92
:101000000B0F04BF09010CF1040C8B0F04BF890006
:101010000CF1020CCB0F04BF49000CF1010CCCF118
:101020002003A0EB0C0022FA03F302FA0CF241EACF
:10103000030100F10100704720F07F4C80EA0300BB
:1010400023F07F47ACEB070303F57C5300F000402F
:1010500003F1FF032DE980494FEA154B09B44FEA2C
:10106000144325EA0B4E24EA03480FF2042606EB4C
:10107000132749083E785FEA320203FB0667C7F58B
:10108000000707FB06F64FEA54374FEAD64606F14B
:10109000020607FB066CCCF1005C4FEA1C472CEA09
:1010A000074C07FB06F40CFB06F504EB15464FEA6C
:1010B000961634BF00204FF000404FEAD13706FBB0
:1010C00007FC4FEA1C4C0CFB0BF7D21B03FB0CF785
:1010D00061EB07010CFB0EF7B0EB074072EB174218
:1010E0000CFB08F734BFA2EB0742B2EB074261EBFF
:1010F00017414FEA0C444FEA910706FB07FC4FEA01
:101100001C4C0CFB0BF7B0EBC74072EB573203FBE8
:101110000CF734BFA2EBC742B2EBC74261EB5731C9
:101120000CFB0EF7B0EBC70072EB57720CFB08F725
:1011300034BFA2EBC702B2EBC70261EB5771039F4A
:101140004FEA816141EA921104EBCC044FEAD137B6
:101150004FEA826206FB07FC42EA90124FEA806087
:101160004FEA1C4C0CFB0BF7D21B03FB0CF761EB9B
:1011700007010CFB0EF7B0EB074072EB17420CFBBC
:1011800008F734BFA2EB0742B2EB074261EB17410D
:101190004FEA8C554FEA910704EB9C2406FB07FCB1
:1011A0004FEA1C4C0CFB0BF7B0EBC74072EB57320D
:1011B00003FB0CF734BFA2EBC742B2EBC74261EBB3
:1011C00057310CFB0EF7B0EBC70072EB57720CFBFC
:1011D00008F734BFA2EBC702B2EBC70261EB57714D
:1011E00015EB4C254FEA816141EA92114FEA826288
:1011F0004FEAD13742EA901206FB07FC44F10004A3
:101200004FEA80604FEA1C4C0CFB0BF7D21B03FB30
:101210000CF761EB07010CFB0EF7B0EB074072EB2C
:1012200017420CFB08F734BFA2EB0742B2EB0742B0
:1012300061EB174115EB1C154FEA813141EA9241F0
:101240004FEA823242EA90424FEA80304FEA0C760F
:1012500044F1000448EA03434EEA0B484FF0000E05
:10126000B2EB080C71EB030724BF624639464EEB24
:101270000E0E4FF0000B0018524149414BEB0B0B87
:10128000B2EB080C71EB03077BF1000B24BF624645
:1012900039464EEB0E0E4FF0000B001852414941FB
:1012A0004BEB0B0BB2EB080C71EB03077BF1000B64
:1012B00024BF624639464EEB0E0E51EA020718BFB4
:1012C00046F0010616EB0E7655F1000254F10001CE
:1012D00003D5BDE88901BDE80088BDE88901BDE806
:1012E0000048B619524141EB0101A3F101037047D7
:1012F00080807F7E7D7C7B7A797877767675747353
:10130000727171706F6E6E6D6C6C6B6A6A69686811
:10131000676666656464636362616160605F5F5EA7
:101320005E5D5D5C5C5B5B5A5A595958585757561D
:101330005655555554545353525252515150505082
:101340004F4F4F4E4E4D4D4D4C4C4C4B4B4B4A4AD4
:101350004A49494948484847474747464646454518
:101360004544444444434343434242424241414151
:10137000002B9C4630D477002BD01CB54FEA3707A2
:1013800003B44FF010004FF01001BAF1000F06D077
:10139000BCF1000FDCBF40F0080040F008014FF046
:1013A00000000FBCBDE810400BF1010BBBF1010FB9
:1013B00008BF5FEA170722BF12F1010211F1010114
:1013C0004FF0004143F1000300F0004043EA000009
:1013D0007047F9D35708D0E746EA064613F1400FA5
:1013E0004FEA16461FDD13F1200FDFBF16430A46F2
:1013F000002120335B42BED0C3F1200746EA0646F7
:1014000002FA07F74FEA164646EA0706C3F1200735
:1014100022FA03F201FA07F721FA03F14FF0000371
:1014200042EA0702A7E746EA020646EA06464FEA0C
:10143000164646EA0106BCBF46EA0646360C4FF0A1
:1014400000034FF000024FF0000194E72DE9804CBB
:101450009A46934670B491E8380007C831EA400CC8
:1014600048BF34EA430C03D5FFF7E6FDFFF780FFE2
:10147000F0BCBDE8008C2DE9804C9A46934670B4D0
:1014800091E8380007C810F0804F08BF13F0804F74
:1014900003D100F005F8FFF76BFFF0BCBDE8008C4E
:1014A00020F07F4780EA030023F07F4C07EB0C031A
:1014B000A3F57C5300F00040A3F1FE0392F0000F6F
:1014C00000F0B38095F0000F00F077802DE901491E
:1014D0004FEA11404FEA144621EA004800FB06FC9F
:1014E00024EA064708FB06F607FB08F800FB07F7A7
:1014F00018EB06484CEB164C4FEA124B18EB07481A
:101500004FEA15464CEB174022EA0B4E0BFB06FC4C
:1015100025EA06470EFB06F607FB0EFE0BFB07F758
:101520001EEB064E4CEB164C4FF000061EEB074E22
:101530004CEB174B18EB0B0840F1000018EB0E0BAF
:1015400058EB000840F100008F1A4FF000013CBF3B
:10155000C943661B14BFB5EB040C00213CBFC94353
:10156000F61B4FEA17444EEA8E0E27EA04454FEA6F
:101570001C4704FB07622CEA074C05FB07F70CFB32
:1015800005F604FB0CFC16EB074642EB174216EB84
:101590000C4642EB1C421BEB060658EB0202414193
:1015A00046EA9E0601D5BDE80189B619524141EBD4
:1015B0000101A3F10103BDE801894FEA14454FEA97
:1015C000114724EA054621EA074C05FB07F406FB10
:1015D00007F70CFB06F105FB0CFC11EB074144EB94
:1015E00017444FEA124711EB0C4144EB1C4422EA2A
:1015F000074C05FB07F206FB07F70CFB06F605FB9D
:101600000CFC16EB074642EB174216EB0C4642EB7E
:101610001C456A1854F1000148BF7047B619524181
:1016200041EB0101A3F10103704795F0000F37D0A2
:101630004FEA11424FEA144721EA024624EA074CD6
:1016400002FB07F106FB07F70CFB06F402FB0CFCA0
:1016500014EB074441EB17414FEA154714EB0C44D8
:1016600041EB1C4125EA074C02FB07F506FB07F797
:101670000CFB06F602FB0CFC16EB074645EB174588
:1016800016EB0C4645EB1C42121951F1000148BF04
:101690007047B619524141EB0101A3F101037047B4
:1016A0004FEA14454FEA114724EA054621EA074C60
:1016B00005FB07F106FB07F70CFB06F24FF00006EF
:1016C00005FB0CFC12EB074241EB174112EB0C42FD
:1016D00051EB1C4148BF7047921841EB0101A3F147
:1016E00001037047464910B54A6822F440324A6007
:1016F0004A6843681A434A6001684A6822F4807263
:101700004A6001684A68036942EA03224A60016844
:101710004A6822F040724A6001684A6883681A4346
:101720004A6001688A6822F400628A6001688A68F7
:10173000C3681A438A60816A6FF07062D14201689F
:101740008A6822F070628A6001688A680CD0836AB5
:101750001A438A6001688A6822F040528A600168F0
:101760008A68C36A1A4301E022F040528A60016825
:101770008A6822F002028A6001688A68037E42EA6F
:1017800043028A6090F82010002901684A680FD04F
:1017900042F400624A6001684A6822F460424A608A
:1017A00001684A68174C436A04EB43331A4301E06B
:1017B00022F400624A600168CA6A22F47002CA62B6
:1017C0000168CA6A838B104C04EB03531A43CA6244
:1017D00001688A6822F400728A6001688A6890F859
:1017E000303042EA43228A6001688A6822F48062CB
:1017F0008A6001688A68406942EA8020886010BD7A
:101800000023014000E0FFFF0000F0FF1CB5424A4A
:1018100004464048127812B1012A03D101E00121A7
:1018200000E00221012200F0A1FD052002F076FF78
:1018300000208DF80400012201A903F0F1FC9DF8BD
:101840000400E52801D001201CBD00212C2003F05C
:10185000B3FFA07801281ED0E1782C2003F0ACFF64
:101860000021312003F0A8FF20786178800140EA50
:101870004110A17940EA8100617940EAC1002179F3
:101880000844C1B2312003F097FF60799FED230A2D
:10189000234920B114E0E0781030C1B2DDE72079AF
:1018A00070B1012804D0022805D003280ED105E02C
:1018B0009FED1C0A04E09FED1C0A01E09FED1B0A4E
:1018C00081ED020A81ED010A81ED000A01226946DB
:1018D0002D2003F0A5FCE07901289DF8000013D02D
:1018E00020F010008DF80000207A01289DF80000FB
:1018F0000DD020F0200000BF8DF80000C1B22D20D7
:1019000003F05AFF00201CBD40F01000EAE740F051
:101910002000F1E7001002400C0000208180803B95
:10192000000000200402013C2108823C0821043D03
:1019300038B50446012269462D2003F071FC5CB1E4
:10194000012C08D19DF8000020F008018DF800104E
:101950002D2003F031FF38BD9DF8000020F0040079
:1019600040F00801F2E700007CB5044600200D4677
:101970000090019006226946322003F051FC012DAF
:1019800036D0002D33D19DF800009DF8011000EBFA
:10199000012000B200EE100A2048B8EEC00AD0EDD7
:1019A000000A20EE200A84ED000A9DF802109DF83E
:1019B0000320D0ED010A01EB022109B200EE101A5A
:1019C000B8EEC00A20EE200A84ED010A9DF804104A
:1019D0009DF80520D0ED020A01EB022109B200EECC
:1019E000101AB8EEC00A20EE200A84ED020A7CBD6F
:1019F0009DF800009DF8011000EB012020809DF86B
:101A000002009DF8031000EB012060809DF80400A7
:101A10009DF8051000EB0120A0807CBD0000002097
:101A20000FB4282270B50446109D00F8041B06A9C7
:101A3000FEF7EFFDE56270BC5DF814FBFEE7000009
:101A400001681823CAB2103AB2FBF3F2054B6FF3E8
:101A50000901032A9B5CC36500D9091D81650846FD
:101A600070470000F567000810B5014600208B693B
:101A70008A6A4FF0C07453B1B3F5005F15D072B1EC
:101A8000012A0CD0022A0AD0032A09D104E01AB193
:101A9000012A06D0022A03D1C96AC90100D5012052
:101AA00010BDC96AA142FAD010BD002AF7D0012AA0
:101AB000F2D0022AF3D0032AF3D010BD30B5046867
:101AC000256825F480252560046863608368402BC1
:101AD000036803D099600068C26030BD9A600068F6
:101AE000C16030BD704772B6FEE7000078B50024D3
:101AF000009490F83C20012A19D0012280F83C2063
:101B00000A6807230568092A13D9EE680A3A02EB26
:101B1000420293409E43EE600B788A680A3B03EBD7
:101B200043039A400368DD682A43DA6010E002202C
:101B300078BD2E6902EB420293409E432E610B78E2
:101B40008A6803EB43039A4003681D692A431A61BC
:101B50004A681F23072A13D205686E6B521E02EBD8
:101B6000820293409E436E630B790A885B1E92B299
:101B700003EB83039A4003685D6B2A435A6327E0B3
:101B800005680D2A12D22E6BD21F02EB82029340FF
:101B90009E432E630B790A88DB1F92B203EB83030B
:101BA0009A4003681D6B2A431A6311E0EE6A0D3AEE
:101BB00002EB820293409E43EE620B790A880D3B52
:101BC00092B203EB83039A400368DD6A2A43DA6228
:101BD000164B0568144A9D4206D10D68122D03D19B
:101BE000556845F48005556005689D4218D10B681D
:101BF000102B01D0112B13D1536843F40003536011
:101C0000096810290CD10A490A4A0968B1FBF2F1A6
:101C100001EB8101490000E0491E00910029FBD140
:101C200080F83C40002078BD0023014000200140A6
:101C30003400002040420F0070B504004FF0000552
:101C400003D0206C002610B107E0012070BD2046B3
:101C500000F01CF8666484F83C60206CC00610D468
:101C6000206C20F4885040F0020020642046FFF7EA
:101C700039FD6664206C20F0020040F00100206411
:101C800000E0012584F83C60284670BD10B586B0A0
:101C9000044614216846FEF7F6FC11492068884284
:101CA0001CD110480021026842F480720260006872
:101CB00000F4807005900B481438026842F001026D
:101CC0000260006800F001000590012000900320F0
:101CD000CDE901016946044800F048FA06B010BD9C
:101CE000002001404438024000000240F0B590F866
:101CF00020500468A468012D05D0022D03D0416A4C
:101D000041F4802157E014F0406F01D1E5004FD538
:101D1000C4F301640125A5401D608D684FF4C073B4
:101D20009DB1CE6835434E6845EAC605066803EBAB
:101D30000417F5514FF4C275076805EB04150E69D9
:101D40007E51097D012905D009E00E88CD6845EA5C
:101D50004655EBE701684E5946F480764E511179AD
:101D6000D579567941EA056195792D0445EA06252C
:101D700029434FF4C676056806EB0416A95111787D
:101D8000D57841EA0561957852782D0445EA02221A
:101D900011434FF4C475026805EB041551510068F6
:101DA00003EB0411425842F0010242500020F0BD02
:101DB000416A41F4001141620120F0BD0246002059
:101DC00092F82010012901D002290CD111688A68EB
:101DD000520100D501208A68120100D5401C896893
:101DE000C90000D5401C704770B5040003D094F8BA
:101DF000200010B104E0012070BD204600F082F800
:101E00002068016841F00101016000F0B5FA054663
:101E1000052604E000F0B0FA401B0A2811D820681B
:101E20004068C007F6D02068016821F00201016017
:101E300000F0A2FA05460BE000F09EFA401B0A28CB
:101E400006D9606A40F40030606284F82060D2E70E
:101E5000206840688007EFD4207E01282068016850
:101E60003DD021F080010160607E0128206801687A
:101E700038D021F040010160A07E0128206801686F
:101E800033D021F020010160E07E01282068016844
:101E90002ED041F010010160207F012820680168E8
:101EA00029D021F008010160607F012820680168C5
:101EB00024D021F004010160D4E902010843D4E9EF
:101EC0000412114308436168491E08432168C86130
:101ED00000206062012084F82000002070BD41F0E5
:101EE0008001C0E741F04001C5E741F02001CAE7A9
:101EF00021F01001CFE741F00801D4E741F00401DF
:101F0000D9E7000010B586B0044614216846FEF7F4
:101F1000BAFB14492068884221D113480021026885
:101F200042F000720260006800F0007005900E48F8
:101F30001038026842F001020260006800F00100FF
:101F400005904FF4C05000900220CDE9010103201C
:101F50000390092004906946044800F007F906B090
:101F600010BD000000640040403802400000024004
:101F70002DE9F0410446876D00F0FEF9064694F81D
:101F800035000025022806D08020606584F8345092
:101F90000120BDE8F0812068016821F01601016090
:101FA0002068416921F080014161206C08B9A06C72
:101FB00020B12068016821F00801016020680168F3
:101FC00021F0010101600CE000F0D6F9801B05282A
:101FD00007D920206065032084F8350084F8345048
:101FE000D7E720680068C007EED194F85C103F2066
:101FF0008840B860012084F8350084F8345000200F
:10200000C7E790F83510022903D0802141650120EF
:102010007047052180F835100068016821F0010142
:1020200001600020704700002DE9F041044600F0F7
:10203000A3F906465CB1022084F83500002584F837
:1020400034502068016821F0010101600DE0012099
:10205000BDE8F08100F090F9801B052805D920200B
:102060006065032084F83500F2E720680068C00747
:10207000F0D12268116820480140D4E901031843D7
:10208000D4E903363343184363691843A3691843FB
:10209000E3691843236A18430843616A042903D19A
:1020A000D4E90B1319430843106020684069666A3D
:1020B00020F0070130460E43012704280CD1A06A06
:1020C0000643E06A40B12046FFF7CEFC20B1402035
:1020D000606584F83570BAE7206846612046FFF7EE
:1020E000AFFC94F85C203F2191408160656584F8E5
:1020F00035700020ACE700003F8010F02DE9F04182
:102100000446866D90F83400002501280DD001208A
:1021100084F8340094F835700020012F07D084F83B
:10212000340002252846BDE8F0810220FBE70227A3
:1021300084F8357060652046FFF7C0FC94F85C10A9
:102140003F208840B0602068016841F016010160BE
:10215000206C20B12068016841F00801016020680E
:10216000016841F001010160DCE700002DE9F84F52
:10217000DFF8BCA10022012503264FF00F090AF168
:10218000040BAAF1040E00BF0B6805FA02F4234009
:10219000A34270D10F7907F00307012F01D0022F5E
:1021A00016D187684FEA420806FA08FC27EA0C07AE
:1021B000D1F80CC00CFA08FC4CEA070CC0F808C0B7
:1021C0004768A7430C79C4F3001494403C4344602F
:1021D0000C79E443A4070AD0C4684FEA420C06FA1B
:1021E0000CF7BC438F6807FA0CF72743C7600C79DC
:1021F00004F00304022C12D1D40800EB840CDCF8A8
:1022000020405707FF0E09FA07F824EA0804D1F81E
:10221000108008FA07F848EA0408CCF8208004681F
:102220004FEA420C06FA0CF7BC430F7907F003079C
:1022300007FA0CF7274307604C6814F4403F70D04E
:102240003C4C276847F480472760246822F0030746
:1022500004F480440094384C07EB040CDCF8084884
:1022600097074FEA177809FA08F7BC43334FB8428B
:1022700002D1002724E054E0314FB84201D10127B8
:102280001EE0304FB84201D1022719E02E4FB8426C
:1022900001D1032714E02D4FB84201D104270FE0EC
:1022A0002B4FB84201D105270AE02A4FB84201D18D
:1022B000062705E0284FB84201D1072700E008278C
:1022C00007FA08F72743CCF80878DAF800405746B1
:1022D000D1F804C09C435FEACC2C00D51C433C6081
:1022E000DBF800405F46D1F804C09C435FEA8C2CC9
:1022F00000D51C433C60DEF800407746D1F804C0AE
:102300009C435FEA8C3C00D51C433C60084F083F6F
:102310003C68D1F804C09C435FEACC3C00D51C4328
:102320003C60521C102AFFF42FAFBDE8F88F00006C
:10233000083C0140443802400030014000000240A7
:102340000004024000080240000C0240001002405D
:102350000014024000180240001C0240426921EAB9
:1023600002030A4043EA0241816170470AB1816178
:1023700070470904FBE700000148806870470000CF
:10238000280000200248816802781144816070476B
:10239000280000200B4810B5016841F4007101606D
:1023A000016841F480610160016841F4807101605D
:1023B000032000F099F80F2000F006F800F04AF82A
:1023C000002010BD003C024030B505461C4887B0D7
:1023D0000024016841F001010160006806A900F0D5
:1023E0000100009001A800F02BF900F059F91549FF
:1023F0004000B0FBF1F11548134A491E026040F25B
:10240000E732C0E90324C0E90114846100F0C8FE8A
:10241000040012D10D4800F00DFF04000DD1192069
:1024200000F034F8102D07D200222946192000F0C0
:102430003BF80748056000E0012407B0204630BDA6
:102440004438024040420F0000000140E4030020F5
:102450002C0000200C4882B0016841F480410160EA
:10246000006800F4804000900748001F016841F0B8
:10247000805101600068002200F0805000900F2120
:10248000901E02B000F010B844380240002809DB6A
:1024900000F01F02012191404009800000F1E0207E
:1024A000C0F8001170470000F0B40E4B1B680C46DA
:1024B000C3F30223C3F10705042D00D90425191D18
:1024C000072901D2002300E0DB1E012606FA05F1F0
:1024D000491E214099409E40761E16403143F0BC73
:1024E00002F0B9B80CED00E0064900F007020868F8
:1024F0004FF6FF03184040EA0220034A10430860E9
:10250000704700000CED00E00000FA052DE9F047EF
:102510000E46050065D0DFF81481D8F80000F7B248
:1025200000F00700B04207D288F80070D8F8000029
:1025300000F00700B04254D128683D4C810712D505
:10254000400703D5206840F4E05020602878000759
:1025500003D5206840F4604020602068A96820F01E
:10256000F000084320602878C0072DD03049686803
:102570000839012812D0022813D0032811D0096885
:10258000890700292DDA216821F003010143216028
:10259000FFF7F2FE814641F2883A0EE009688903AE
:1025A000EFE709688901ECE7FFF7E6FEA0EB090118
:1025B000514502D90320BDE8F0872068696800F022
:1025C0000C00B0EB810FEFD1D8F80010404601F0BD
:1025D0000701B14207D90770006800F00700B04258
:1025E00001D00120E7E72878400705D52068E96891
:1025F00020F4E050084320602878000706D52068C2
:10260000296920F4604040EAC100206000F058F8D9
:102610002168084AC1F30311515CC84006490860AB
:1026200006480068FFF7D0FE0020C4E7003C0240E7
:1026300008380240FD670008340000202C0000200C
:102640000F2202600C4A136803F00303436013680F
:1026500003F0F0038360136803F4E053C36012686F
:102660004FF4E05303EAD20202610448006800F02C
:10267000070008607047000008380240003C024034
:102680000448054900680968044AC1F38221515C85
:10269000C840704734000020083802400D68000828
:1026A0000448054900680968044AC1F34231515C95
:1026B000C840704734000020083802400D68000808
:1026C000154810B5006810F00C02144813D04110E2
:1026D000042A0FD0082A0ED10F4C241F2268236829
:1026E00002F03F025B0207D52068C0F38810A0FB10
:1026F000010106E0084610BD2168C1F38811A1FB65
:1027000000010023FDF723FE2168C1F30141491CAC
:102710004900B0FBF1F010BD083802400024F4007D
:102720002DE9F84F04006ED02078DFF84C93C007F5
:10273000A9F104054AD009F104000168C1F381013F
:10274000012908D00068C0F3810002280AD1D9F815
:102750000000400206D52868800337D5606800284D
:10276000E1D033E06068B0F5803F10D0B0F5A02F25
:10277000286810D020F480302860286820F4802059
:1027800028606068A8B1FFF7F7FD06460DE02868ED
:1027900040F48030F4E740F480202860F7E700BF81
:1027A000FFF7EAFD801B642873D828688003F7D5FB
:1027B0000CE0FFF7E1FD064605E000BFFFF7DCFD9A
:1027C000801B6428F0D828688003F7D42078DFF8CD
:1027D000AC8280074FF0000A3ED5A748001D016873
:1027E00011F00C0F08D00068C0F3810002280BD153
:1027F000D9F80000400207D42868800716D5E068A1
:10280000012800D112E033E1E068B8B10120C8F836
:102810000000FFF7B1FD064605E000BFFFF7ACFD85
:10282000801B0228C0D828688007F7D5286821694E
:1028300020F0F80040EAC10028600DE0C8F800A0D0
:10284000FFF79AFD064604E0FFF796FD801B02287D
:102850001FD828688007F7D42078000722D5864F34
:1028600087486169703771B101210160FFF784FD0C
:10287000064604E0FFF780FD801B022809D838686F
:102880008007F7D50EE0C0F800A0FFF775FD0646FB
:1028900005E082E0FFF770FD801B02287DD83868D4
:1028A0008007F7D42078400768D5DFF8CCB100273F
:1028B0000BF13C0BDBF80000C0000BD4DBF8001080
:1028C00041F08051CBF80010DBF80000012700F048
:1028D000805000906B4E3068C00510D4306840F4D2
:1028E00080703060FFF748FD009005E0FFF744FD81
:1028F0000099401A022850D83068C005F6D55E4EBF
:10290000A0686C3601280FD00528306810D020F060
:1029100001003060306820F004003060A068B8B179
:10292000FFF72AFD00900FE0306840F00100F4E767
:1029300040F004003060F7E7FFF71EFD0099411AF0
:1029400041F28830814266D830688007F4D50EE0C5
:10295000FFF712FD009007E0FFF70EFD0099411A06
:1029600041F28830814256D830688007F4D42FB1C4
:10297000DBF8001021F08051CBF80010A069C8B33B
:102980003D49091D0968C1F3810102294AD0022885
:10299000504607D0C8F8600000E03CE0FFF7ECFCD0
:1029A00004463BE04746C8F86000FFF7E5FC0646F2
:1029B00005E000BFFFF7E0FC801B02282BD8286849
:1029C0008001F7D4D4E907010843A16A2E4A4908D7
:1029D00002EB0141626A41EA8211084394F82C102B
:1029E00040EA0161C9F8001001203866FFF7C4FC15
:1029F000044606E03EE000BFFFF7BEFC001B0228D5
:102A000009D828688001F7D534E000BFFFF7B4FC8F
:102A1000001B022802D90320BDE8F88F2868800136
:102A2000F4D427E00128F7D0D9F80000E26900F4D7
:102A3000800191421CD1226A00F03F01914217D1DE
:102A400047F6C071626A0140B1EB821F10D1A26AE1
:102A50004FF0FF3300F4403103EB5202B1EB024F71
:102A600006D194F82C1000F07060B0EB016F01D02B
:102A70000120D1E70020CFE70438024000004742A0
:102A8000800E4742007000400000FFFF70B5040058
:102A900009D0606A002540B125616561A56294F89E
:102AA000510040B10CE0012070BD6068B0F5827F3C
:102AB000F4D0E561F2E784F85050204600F044F885
:102AC000022084F851002068016821F04001016073
:102AD000A088218900F4827001F404410843A1898F
:102AE00001F400610843217C01F002010843217DCB
:102AF00001F001010843218B01F400710843217F9B
:102B000001F03801084394F8201001F080010843D7
:102B1000218D01F40051084321680860A069042157
:102B200001EA104094F8241001F0100108432168D4
:102B300048602068C16921F40061C16165650120B8
:102B400084F85100002070BDF0B587B00446142110
:102B50006846FDF798FD3B48236800243A49022562
:102B60000326052783421AD137481430026842F4FD
:102B700080520260006800F480500590086840F0C0
:102B800001000860086802AA00F001000590E0203A
:102B9000CDE9000582E8D00069462C4830E02A4A99
:102BA000DFF8ACC010322B4863452DD1136843F4D5
:102BB00080431360126802F4804205920A6842F072
:102BC00004020A600A6802F0040205920A6842F0F0
:102BD00002020A60096802AB01F0020105910C21B2
:102BE000CDE9001583E8D0006946FFF7BFFA4FF43E
:102BF0008060CDE9000502AB694683E8D000164845
:102C0000FFF7B4FA07B0F0BD144FBB42FAD1136816
:102C100043F400431360126802F4004205920A680C
:102C200042F004020A600968029401F0040105916F
:102C30004FF4E051CDE900150621CDE90361694665
:102C4000DEE7000000300140303802400000024062
:102C5000003800400008024000040240003C0040F0
:102C60002DE9F84F044690F851001D4616460F46D0
:102C7000012838D160684FF00408B0F5827F01D197
:102C8000A06830B3FFF778FB8246002F75D0002E86
:102C900073D094F85000012825D04FF0010984F832
:102CA000509084F851804FF00008C4F85480A76316
:102CB000A687E687C4F83080A4F83480A4F836806C
:102CC000C4F84080C4F84480A068B0F5004F0CD030
:102CD00015E084F85180009313460A46204600F020
:102CE0001CF9BDE8F88F0220FBE72068016821F09D
:102CF000400101602068016821F480410160206882
:102D00000168490603D4016841F040010160E068B0
:102D1000C0B134E020688168C90709D0007BA16B8D
:102D20000870A06B401CA063E08F401EE08709E0A4
:102D3000FFF722FBA0EB0A00A84202D3681C01D0D7
:102D400032E085B3E08F0028E4D11BE02068816881
:102D5000C90709D0C068A16B0880A06B801CA06364
:102D6000E08F401EE0870AE0FFF706FBA0EB0A00B9
:102D7000A84203D3681C02D016E012E09DB1E08F98
:102D80000028E3D152462946204600F091FF08B1C1
:102D90002020606584F8519084F85080606D002890
:102DA0009FD001209DE7FFE784F8519084F8508080
:102DB000032096E72DE9F84F984616468A460446C2
:102DC000FFF7DAFA814694F8510001281ED1BAF1D2
:102DD000000F73D0002E71D094F85000012815D048
:102DE000012784F85070032084F8510000256565A0
:102DF000C4F830A0A686E686A563A587E587656446
:102E00002564A068B0F5004F03D00CE00220BDE8B7
:102E1000F88F2068016821F0400101602068016896
:102E200041F48041016020680168490603D40168CB
:102E300041F040010160E068B0F5006F606803D0C8
:102E400048B3012E27D047E008B1012E1FD1206BD7
:102E500021680088C86006E020688168890709D574
:102E6000216B0988C160206B801C2063E08E401EAE
:102E7000E0860CE0FFF780FAA0EB0901414503D39F
:102E8000B8F1FF3F03D035E0B8F1000F32D0E08E4B
:102E90000028E1D123E0206B21680078087306E068
:102EA0002068816889070AD5216B09780173206B36
:102EB000401C2063E08E401EE0860DE02BE0FFF713
:102EC0005BFAA0EB0901414503D3B8F1FF3F03D002
:102ED00010E0B8F1000F0DD0E08E0028E0D14A4696
:102EE0004146204600F012FF08B120206065A0682E
:102EF00030B109E084F8517084F85050032086E71F
:102F00002068C1688068009084F8517004F8505FB0
:102F100060680028F3D0012079E72DE9FF4F81B0E8
:102F20001D46934604464FF001090E9EFFF724FA12
:102F3000074694F851006168012806D0B1F5827FF8
:102F40003CD1A168C9BB042838D10298002871D0AF
:102F5000BBF1000FFBD0002DF9D094F850000128F0
:102F60002CD04FF0010A84F850A094F851000428A6
:102F700002D0052084F851004FF00008C4F85480B6
:102F8000C4F838B0E587A58702992163E586A58650
:102F9000C4F84080C4F8448020680168490603D41E
:102FA000016841F040010160E068B0F5006F6068C1
:102FB00008D0F0B3012D49D081E0FFE7022005B031
:102FC000BDE8F08F08B1012D39D1206B2168008850
:102FD000C860206B801C2063E08E401EE0862EE0DF
:102FE0002068816889070FD5E18E69B1B9F1010FB9
:102FF0000AD1216B0988C160206B801C2063E08EA0
:10300000401EE0864FF0000920688168C9070CD097
:10301000E18F51B1C068A16B0880A06B801CA063D8
:10302000E08F401EE0874FF00109FFF7A5F9C01BB4
:1030300001E00BE067E0B04201D3701C50D1E08E9C
:103040000028CDD1E08F0028CAD13EE0206B216856
:1030500000780873206B401C2063E08E401EE086E1
:103060002DE02068816889070FD5E18E69B1B9F13B
:10307000010F0AD1216B09780173206B401C20637A
:10308000E08E401EE0864FF0000920688168C90785
:103090000CD0E18F51B1C068A16B0870A06B401CCF
:1030A000A063E08F401EE0874FF00109FFF764F94D
:1030B000C01BB04202D3701C01D011E086B1E08E7B
:1030C0000028CED1E08F0028CBD13A4631462046A9
:1030D00000F01CFE50B12020606584F8508012E0A2
:1030E00084F851A084F85080032068E7A06818B9DC
:1030F0002068C1688068009084F851A084F85080EE
:10310000606D0028F1D0012059E77047704700003A
:1031100070B590F83C20012A32D0012480F83C4060
:10312000022280F83D2003685A689D6822F07006EC
:103130000A6832435A60134B02689A4214D0B2F1C3
:10314000804F11D0104B9A420ED0104B9A420BD0A8
:103150000F4B9A4208D00F4B9A4205D00E4B9A4221
:1031600002D00E4B9A4204D1496825F080031943DE
:10317000916080F83D40002180F83C10084670BD09
:10318000022070BD00000140000400400008004023
:10319000000C0040000401400040014000180040C5
:1031A00010B5040003D094F83D0010B107E00120F1
:1031B00010BD002084F83C00204600F01FF80220DB
:1031C00084F83D00211D206800F082FF012084F872
:1031D000460084F83E0084F83F0084F8400084F8FC
:1031E000410084F8420084F8430084F8440084F8E5
:1031F000450084F83D00002010BD000008B50068BF
:10320000B0F1804F12D10A48016841F0010101601C
:103210000068002200F00100009005211C20FFF74B
:1032200043F9BDE808401C20FFF730B908BD000095
:103230004038024090F83D10012901D0012070472C
:10324000022180F83D100168CA6842F00102CA609C
:1032500000681149884214D0B0F1804F11D00F4955
:1032600088420ED00E4988420BD00E49884208D0C1
:103270000D49884205D00D49884202D00C49884248
:1032800004D1816801F00701062903D0016841F0EB
:10329000010101600020704700000140000400406F
:1032A00000080040000C00400004014000400140C4
:1032B0000018004070B5044690F83C000025012835
:1032C00017D0012684F83C60022084F83D00206875
:1032D000826822F0770222F47F42826008685028D8
:1032E00038D00DDC20284FD005DC90B3102811D148
:1032F0004AE0022070BD302846D040280AD13BE089
:1033000060282FD070280DD0B0F5805F03D0B0F5C5
:10331000005F12D0012584F83D60002084F83C0055
:10332000284670BDCB68D1E90121206800F03CFF40
:103330002068816841F0770109E0CB68D1E901217B
:10334000206800F031FF2068816841F4804181608D
:10335000E1E719E0CA684968206800F037FF5021AA
:10336000206806E0CA684968206800F040FF6021D4
:10337000206800F023FFCEE7CA684968206800F0A3
:1033800025FF40212068F4E7226801461046F0E757
:1033900070472DE9F04104460068C66805694FF0A2
:1033A0000007A90713D5B10711D5F91E0161012046
:1033B0002077206880698007204602D0FFF7E8FF69
:1033C00004E000F07EF8204600F07CF827776807DC
:1033D00016D5700714D521686FF00400086102202B
:1033E00020772068806910F4407F204602D0FFF7E4
:1033F000CFFF04E000F065F8204600F063F827777F
:10340000280715D5300713D521686FF0080008612B
:10341000042020772068C0698007204602D0FFF78B
:10342000B7FF04E000F04DF8204600F04BF8277796
:10343000E80616D5F00614D521686FF01000086173
:10344000082020772068C06910F4407F204602D011
:10345000FFF79EFF04E000F034F8204600F032F859
:103460002777E80708D0F00706D021686FF0010041
:103470000861204600F028F8280608D5300606D551
:1034800021686FF0800008612046FFF73EFE680665
:1034900008D5700606D521686FF040000861204607
:1034A00000F01CF8A8060AD5B00608D521686FF010
:1034B000200008612046BDE8F041FFF727BEBDE8C7
:1034C000F08170477047000000680349884201D1CD
:1034D000FEF758BF7047000000000140704770477A
:1034E00010B504460068406994F84110C0F3C0105C
:1034F000212911D180B12068143050E8001F21F03B
:10350000800140E80012002AF5D1A06B08B1FEF757
:103510002FFD204600F023FF2068406994F84210F8
:10352000C0F38010222911D180B12068143050E8F6
:10353000001F21F0400140E80012002AF5D1E06BA5
:1035400008B1FEF715FD204600F0E2FE002010BD98
:1035500070470000F8B5016804460868CA684B69FE
:1035600010F00F0F4FF0000559D003F0010602F4E0
:103570009077374365D0C10705D0D10503D5616C7D
:1035800041F001016164410705D5D90703D0616CA1
:1035900041F002016164810705D5D90703D0616C50
:1035A00041F004016164010707D502F020013143B5
:1035B00003D0616C41F008016164616C00293AD06C
:1035C000800604D5900602D5204600F0D6FE20687D
:1035D0004069616CC0F38010090700D460B32046D5
:1035E00000F096FE20684069400621D5206814301E
:1035F00050E8001F21F0400140E80012002AF5D1F8
:10360000E06BA8B16E490165E06BFEF7FAFC00289B
:1036100011D0E06B016D01B0BDE8F04008478306B2
:103620000FD593060DD52046BDE8F84000F0A5BEA5
:103630002046FFF78DFFF8BD2046FFF789FF656440
:10364000F8BD266B2023012E7DD1C6067BD5D6067C
:1036500079D508684868009048694FF0020640062E
:1036600041D5E16B086840680004000CE8D0A28DE9
:103670008242E5D9E085C869B0F5807F2DD0206809
:103680000C3050E8001F21F4807140E80012002A3D
:10369000F5D12068143050E8001F21F0010140E806
:1036A0000012002AF5D12068143050E8001F21F0E4
:1036B000400140E80012002AF5D184F84230256329
:1036C00020680C3050E8001F21F0100140E8001283
:1036D000002AF5D1E06BFEF74BFC6663A08DE18D0F
:1036E000401A81B22AE0A08DE18D401A81B2E08DAE
:1036F0000028A5D00029A3D022680C3252E8000F80
:1037000020F4907042E80007002FF5D120681430B3
:1037100050E8002F22F0010240E80027002FF5D1E9
:1037200084F84230256320680C3050E8002F22F0E6
:10373000100240E80023002BF5D166632046FFF716
:10374000CEFEF8BDFFE705062BD5150629D594F862
:1037500041002128F5D1A068B0F5805F01D1206932
:10376000B0B1206A411C2162216800784860E08C79
:10377000401E0004000CE084E3D12068C16821F001
:103780008001C1602068C16841F04001C160D8E794
:10379000206A0088C0F308004860206A801C20620C
:1037A000E5E74006CDD55006CBD5CA68204622F0C5
:1037B0004002CA6084F8413000F0BCF8C1E7000064
:1037C0001342000870B5040004D094F841000025AD
:1037D00010B106E0012070BD84F84050204600F092
:1037E00023F8242084F841002068C16821F40051A6
:1037F000C160204600F022FE2068016921F490415A
:1038000001612068416921F02A0141612068C16895
:1038100041F40051C1606564202084F8410084F8BF
:1038200042006563002070BD2DE9F04186B0064678
:1038300014216846FCF727FF3149306888425BD184
:1038400030480024016841F010010160006800F078
:10385000100005902B481438016841F00101016007
:103860000068694600F0010005904FF4C0600090C8
:103870000220CDE901040320039007200490224890
:10388000FEF774FC224D21484FF000672860C5E91F
:1038900001744FF48068C5E903486C614FF440300F
:1038A000AC61C5E9074028466C62FEF7BDFB08B174
:1038B000FEF719F9F563AE63154D1448603578309D
:1038C000E5E802074020A5E81101114845F8144930
:1038D0006030AC61EC612C626C62FEF7A5FB08B154
:1038E000FEF701F9B563002205212520AE63FEF73E
:1038F000DBFD2520FEF7CAFD06B0BDE8F081000023
:103900000010014044380240000002404064024080
:103910002403002090F84230202B01D00220704771
:1039200021B11AB10023036300F00EBE01207047DD
:10393000704770477047FEE77FB500241548009434
:10394000019402941249039401604FF48031C0E95C
:1039500001140461047680F820400F49C0E90A147C
:103960000125C561C46080F830404561FEF764F907
:1039700008B1FEF7B8F8CDE900456946054802945C
:10398000FEF7B4F8002801D0FEF7ADF87FBD0000C7
:1039900000200140D00000200100000F0F4810B5AA
:1039A0000D4901600621416000214FF40032816021
:1039B000C0E9031212014261017641768176C17637
:1039C00001774177FEF710FA002803D0BDE81040D8
:1039D000FEF789B810BD00000064004030010020EF
:1039E000054808B5016841F480010160006800F4F1
:1039F0008000009008BD00003038024010B5124A27
:103A00000021012000F0F4FE104C0F4A00216061FB
:103A1000903A0F4800F064FF0B4A60606C3A002156
:103A20000C4800F05DFF084AA060483A00210A48AF
:103A300000F056FF044AE060243A0021074800F0F5
:103A40004FFF206110BD0000B46700080C0000208B
:103A5000313E00083D3E0008A53E0008413F0008F9
:103A6000F0B587B014216846FCF70DFE2948002404
:103A7000016841F020010160016801F02001059119
:103A8000016841F080010160016801F08001059149
:103A9000016841F004010160016801F00401059131
:103AA000016841F001010160016801F00101059127
:103AB000016841F002010160016801F00201059115
:103AC000016841F0100101600068134E00F0100021
:103AD0004FF400750590002229463046FEF746FC5B
:103AE0000E4F012203213846FEF740FC00950125C8
:103AF000CDE90154694630460394FEF737FB0320B5
:103B00000090CDE90154694638460394FEF72EFB38
:103B100007B0F0BD303802400014024000100240EF
:103B2000104810B50E4901604FF4827141600021C8
:103B300002228160C0E903120122426152028261C5
:103B40001022C0E90721416281620A21C162FEF7A9
:103B50009DFF002803D0BDE81040FDF7C4BF10BD95
:103B600000300140580100200F4810B50D49016098
:103B70004FF48271416000218160C1604FF4007296
:103B80000161C0E90512C1610162416281620A21DD
:103B9000C162FEF77BFF002803D0BDE81040FDF7AF
:103BA000A2BF10BD00380040B00100200F4810B582
:103BB0000D4901604FF48271416000218160C16054
:103BC0004FF400720161C0E90512C16101624162F6
:103BD00081620A21C162FEF759FF002803D0BDE8C7
:103BE0001040FDF780BF10BD003C004008020020DF
:103BF00010B586B0002417480094019402940394F1
:103C000004944FF080410594016042F2CF01C0E975
:103C100001141321C0E9031480218161FFF7C0FA68
:103C200008B1FDF760FF4FF48050009069460948E5
:103C3000FFF740FB08B1FDF756FF049404A90548BF
:103C40000594FFF765FA002801D0FDF74CFF06B098
:103C500010BD00006002002010B5124C10480C216D
:103C60002060114860600020A060E060C4E90401A9
:103C7000A061E0612046FFF7A5FD08B1FDF733FF25
:103C800008484830FEF7D0F9064932223439054851
:103C9000FFF740FE2068C16841F01001C16010BD0F
:103CA00000100140DC02002040420F00FEE7FEE76A
:103CB000F8B5044640684FF48273984221D1A06859
:103CC0004FF48065B0F5004F01D0A8420AD12068BA
:103CD000066826F0400606606068984211D1A06828
:103CE000A8420ED000920B4600228021204600F010
:103CF00043F8002804D0606D40F020006065032088
:103D0000F8BD00920B4600220121EFE7F8B51546F9
:103D10000E460B46009204460122022100F02CF8C8
:103D2000A0B9134813490068B0FBF1F04FF47A7161
:103D3000484300906068B0F5827F0DD13346002281
:103D400080212046009500F017F870B1606D40F0BA
:103D5000200060650320F8BD009830B1401E00903F
:103D600020688068C0430006F6D50020F8BD00003A
:103D70003400002000366E012DE9F8431E469146BE
:103D800088460446089DFEF7F7FA401B351AFEF7F1
:103D9000F3FA074625480068C0F3CB30684338E0A3
:103DA000701C37D0FEF7E8FAC01BA84203D215B149
:103DB000009860B32CE02068416821F0E001416088
:103DC0006068B0F5827F0BD1A068B0F5004F02D0DB
:103DD000B0F5806F04D12068016821F040010160D6
:103DE000A06AB0F5005F09D12068016821F4005194
:103DF00001602068016841F400510160012084F8ED
:103E00005100002084F850000320BDE8F88300250D
:103E1000401E00902068816838EA010004D000212B
:103E20004945BDD10020F0E70121F9E73400002029
:103E30004FF47A74204600F071FCFBE7ACB0282206
:103E4000154909A8FCF7E5FB144C0BA920220D46E7
:103E500068460894FCF7DDFBDDE90923012113A87E
:103E6000FDF7DEFD2022294668460894FCF7D1FBC9
:103E7000DDE9092302211FA8FDF7D2FD084D4FF40B
:103E800000744FF47A7621462846FEF767FA3046EA
:103E900000F044FCF7E70000C4670008794600081A
:103EA00000140240ADF1280D1E484FF0FF3140696B
:103EB00000F070FCDFF87080D8F8080002F0BAFB60
:103EC00006460F46D8F8040002F0B4FB04460D463F
:103ED000D8F8000002F0AEFBCDE90001A8F10C001B
:103EE000806802F0A7FB8246A8F10C008B46406870
:103EF00002F0A0FB80460C4889460C38006802F0AE
:103F000099FB41EC100B06A853EC102B80E8F00055
:103F1000DDE90001CDE904018DE8000F03A0FCF705
:103F20008DFAC1E70C000020C400002025662C2576
:103F3000662C25662C25662C25662C25660D0A0028
:103F40000EB5174A174C002507CA8DE807002570E3
:103F50006846FDF75BFC014613A0FCF76FFA0020F2
:103F6000FDF7E6FC012626706846FDF74FFC01468A
:103F700012A0FCF763FA0020FDF7DAFC257000219F
:103F80001348FDF7F1FC012000F0C8FB1048267033
:103F900000210C30FDF7E8FC012000F0BFFBEDE74D
:103FA000EC6700080C0000206164786C30315F73AE
:103FB000746174653A2025640D0A00006164786CB0
:103FC00030325F73746174653A2025640D0A000015
:103FD000B800002010B54FF0E020006902F01CF995
:103FE000012803D0BDE8104001F094BC10BD0000D2
:103FF00030B593B030216846FCF745FB14210CA87E
:10400000FCF741FB1D480025016841F0805101602B
:10401000006800F0805011901948016841F4804117
:1040200001600068022400F480401190012000909B
:10403000000401908001CDE9064008AA0420A821CF
:1040400082E813000B906846FEF76AFB08B172B66F
:10405000FEE70CA90F2081E831004FF4A0500F902B
:104060004FF48050109005210CA8FEF74FFA00285D
:1040700001D072B6FEE713B030BD000040380240F8
:10408000007000400248016841F47001016070470F
:1040900088ED00E00148FFF77CB90000E403002050
:1040A00010B5094C20680069C043C00703D1074818
:1040B000006800F0E9FB21686FF001000861BDE8CD
:1040C00010400148FFF765B9600200202000002081
:1040D000F0B50268294C2A4D2A4E2B4F2B4B4FF03E
:1040E000804CA04209D0604507D0A84205D0B0421C
:1040F00003D0B84201D0984204D122F0700E4A6831
:1041000042EA0E02A0421BD0604519D0A84217D047
:10411000B04215D0B84213D0984211D01C4DA842DD
:104120000ED01C4DA8420BD01B4DA84208D01B4DF1
:10413000A84205D01A4DA84202D01A4DA84203D178
:1041400022F44075CA682A434D6922F080022A434E
:1041500002608A68C2620A688262A04201D0984204
:1041600001D109690163012141610169C90703D0D6
:10417000016921F001010161F0BD00000000014072
:104180000004004000080040000C00400004014012
:104190000040014000440140004801400018004038
:1041A000001C00400020004010B5846842EA032251
:1041B00024F47F440A432243826010BD826822F0C7
:1041C00070020A4342F007018160704710B5036A2C
:1041D000046A24F001040462846924F0F00444EACF
:1041E000021423F00A020A438461026210BD10B572
:1041F000036A046A24F010040462846923F0A003B3
:1042000024F4704444EA023243EA011182610162FB
:1042100010BD10B5806B0021C185C184FFF798F9EE
:1042200010BD70B5846B2068406994F84110C0F3EC
:10423000C0100025212904D118B1E584204600F0E2
:104240008EF82068406994F84210C0F3801022294B
:1042500004D118B1E585204600F05AF8606C40F0B2
:10426000100060642046FFF773F970BD10B5014679
:10427000806B096809684FF00002C9052ED4C28519
:1042800001680C3151E8003F23F4807341E80034A9
:10429000002CF5D10168143151E8003F23F00103EF
:1042A00041E80034002CF5D10168143151E8003F99
:1042B00023F0400341E80034002CF5D1202180F8A0
:1042C0004210016B012909D101680C3151E8003F0E
:1042D00023F0100341E80034002CF5D14263016B58
:1042E000012902D0FFF724FB10BD818DFFF7F7F8FD
:1042F00010BD10B5806B01214163016B012902D013
:10430000FFF717FB10BD818D4908FFF7E8F810BDD6
:1043100001680C3151E8002F22F4907241E800232B
:10432000002BF5D10168143151E8002F22F0010271
:1043300041E80023002BF5D1016B012909D1016867
:104340000C3151E8002F22F0100241E80023002B2D
:10435000F5D1202180F842100021016370470168E7
:104360000C3151E8002F22F0C00241E80023002B5D
:10437000F5D1202180F84110704708B590F842101F
:10438000222901D0022008BD82684FF480539A424E
:1043900001D1016921B1816A9A421BD04AB10AE078
:1043A0000268816A5268C2F308020A80816A891C25
:1043B00008E0026972B10268526802F07F020A7076
:1043C000816A491C8162C18D491E0904090CC1859D
:1043D00003D01BE002685268F1E70168CA6822F066
:1043E0002002CA600168CA6822F48072CA6001684B
:1043F0004A6922F001024A61202180F8421000211E
:104400004163026B012A03D0FFF792FA002008BD36
:10441000016301680C3151E8002F22F0100241E8DD
:104420000023002BF5D101680A68D20602D50A687C
:1044300049680091818DFFF752F8E7E770B50446AF
:1044400000680169E26821F440511143016121696A
:10445000A068E26908436169114308432168CA689A
:1044600049F20C639A430243CA6020684169A26919
:1044700021F440711143416131492068884202D0E2
:104480003049884202D1FEF70BF901E0FEF7F8F857
:10449000E2690023192164253226B2F5004F6268D3
:1044A00028D0A0FB0101930F9200FBF750FF0146BB
:1044B000B0FBF5F06FF01802504301EB800006EB03
:1044C0000010B0FBF5F000F0F002B1FBF5F002EBEC
:1044D0000012B1FBF5F06FF01803584301EB8000B8
:1044E00006EB0010B0FBF5F000F00F00216810445F
:1044F000886070BDA0FB010192185B41FBF727FFAC
:104500000146B0FBF5F00201B1FBF5F06FF01803C6
:10451000584301EB800006EBC000B0FBF5F000F063
:10452000F80002EB4002B1FBF5F0584301EB8000CC
:1045300006EBC000B0FBF5F000F00700D6E7000086
:10454000001001400014014038B5816204468285A4
:10455000002013466064222284F84220E56B1B4A47
:10456000EA63E56B1A4A2A64E56B1A4AEA64E26B6D
:1045700010650A462168E06B091DFDF7BFFD206844
:10458000016840680090206948B120680C3050E80C
:10459000001F41F4807140E80012002AF5D1206824
:1045A000143050E8001F41F0010140E80012002AD9
:1045B000F5D12068143050E8001F41F0400140E878
:1045C0000012002AF5D1002038BD00006D4200081D
:1045D000F34200082342000838B50F48006801681C
:1045E000C943C90613D401680024406800900A48F2
:1045F000FEF776FF09490AA0FBF720FF07483222A1
:1046000001460460446004810348FFF783F9BDE874
:1046100038400148FEF79EBFDC020020A8020020BF
:1046200025730000FEE703B401984100009850EAAA
:10463000C12018BF04204A0D18BF40F0010040F20D
:10464000FF72B2EB515F08BF40F00200012808BFC3
:10465000052002B070470907090E002804DB00F1AD
:10466000E02080F80014704700F00F0000F1E02017
:1046700080F8141D7047704708B5012300930C4B58
:104680001860586000209860C3E9030108496B4630
:1046900001F11800FDF72AFB08B1012008BD04480C
:1046A0001830FDF78BFB0328F9D1002008BD00006E
:1046B0001801002003490A685206FCD5C2B24A60BC
:1046C0007047000000100140FDF764FEFFF790FC0A
:1046D000FFF7C6F9FFF784F9FFF72EF9FFF75EF948
:1046E000FFF71EFAFFF740FAFFF760FAFFF780FACC
:1046F000FFF7B2FA0648FEF79DFD06A0FBF79EFE07
:1047000000F01AF8FFF77AF900F028F8FEE7000049
:104710006002002073746172740D0A0010B5EFF32B
:10472000058111B16FF0050403E0002408B100F029
:1047300015FF204610BD0000EFF3058010B16FF0AB
:10474000050070470448016811B14FF0FF30704711
:1047500001210160002070478800002010B5EFF3B0
:10476000058010B16FF0050010BD084801680129EF
:1047700002D04FF0FF3010BD054A002182F8141D11
:104780000221016000F09AFF002010BD8800002087
:104790000BE000E0F8B50D460024211F4E1C002858
:1047A00004D000BFEFF30582A2B10DB10C461BE0AF
:1047B00000216A46009101F093FB012813D1009873
:1047C00090B10A494FF080500860BFF34F8FBFF39C
:1047D0006F8F09E0294601F0D1FB012804D015B103
:1047E0006FF0010400E034462046F8BD04ED00E01F
:1047F000F8B5144603460E464FF00005EFF305806A
:1048000098BB93B39E423DD84CB1A0680028E068A5
:1048100003D0502836D3012002E008B132E0002056
:10482000012B05D010B31846A26801F0A6F820E0CD
:1048300040B103200090002211460120A36801F03E
:10484000DDF804E003220021012001F0B6F80500A4
:1048500018D086B100231A46194601F047F90128FD
:1048600009D0284600F02CFE00250BE0184601F088
:1048700067F8050006D00CB1216800E00021284649
:1048800000F00AFE2846F8BD38B50024E51E0028D1
:104890000BD000BFEFF30581A9B10021009169465B
:1048A00001F033FA012815D102E06FF0030412E0A1
:1048B000009880B109494FF080500860BFF34F8FD6
:1048C000BFF36F8F07E000231A46194601F00EF977
:1048D000012800D02C46204638BD000004ED00E041
:1048E0002DE9FF414FEA01034FF00005EFF3058189
:1048F000039549BB40B38027182100244AB31668AA
:1049000006B1344696691EB13146761E382E02D263
:104910001679F60703D0002004B0BDE8F08156698F
:1049200006B1B708D2F808C0BCF1000F0DD0D568A9
:104930005C2D18D312693AB136B18DE806103A46AB
:10494000214601F03EFC03900DE0D6685EB9126985
:104950004AB903AACDE90012BAB2214601F004FC1B
:10496000012800D003950398D6E700002DE9F04117
:10497000134C0F460546E6682068001D00F08EFCCB
:10498000681C07D137B12168BDE8F0410D48091D09
:1049900000F0D4BC20683544B5424560216805D29A
:1049A000A06BBDE8F041091D00F0B0BC606B091DB3
:1049B00000F0ACFCA06A854200D2A562BDE8F0819F
:1049C000380000201C0900202DE9F041054600F0C8
:1049D000C1FC2D4CA068401CA06020682B4F10B17A
:1049E000606930B32BE02560A068012827D100263C
:1049F00006EB860007EB800000F07AFC761C382E70
:104A0000F6D3234800F074FC2148143000F070FC09
:104A10001F48283000F06CFC1D483C3000F068FC5A
:104A20001B48503000F064FC194860631430A063E8
:104A300005E02068E96AC06A884200D82560606A9B
:104A4000401C60626864E86A2169884200D920617C
:104A500000EB800007EB8000291D00F06FFC00F0E8
:104A600099FC606900280CD02068E96AC06A884215
:104A700007D208494FF080500860BFF34F8FBFF353
:104A80006F8FBDE8F0810000380000206C0400202A
:104A9000CC08002004ED00E038B500F05BFC104CC1
:104AA0002068C8B90F4800F023FC0E48143000F00D
:104AB0001FFC0C48E060143020610A4B0020F03BE2
:104AC000009003F1500210210A2000F097FF2060AF
:104AD00010B105A100F0E0FCBDE8384000F05ABC80
:104AE00074000020200A0020546D72510000000064
:104AF00030B4026C0B46002A0BD0C1681144C1606F
:104B00008468A14201D30168C16030BC1846FBF73C
:104B10003BBD30BC70472DE9F041856B174604461C
:104B20000026026C82B1C7B1E068FBF72DFDE16899
:104B3000206C091AE1602268914202D2A168081A29
:104B4000E060022F16D017E02068A8B9A06801F035
:104B5000DBFB06460020A0600EE06068FBF714FD5A
:104B6000216C606808446060A168884204D32068B2
:104B7000606001E005B16D1E6D1CA5633046BDE8A7
:104B8000F08110B5044690F8590058B101280CD0B6
:104B900002280FD0502080F31188BFF34F8FBFF34E
:104BA0006F8FFEE7206B00F009FC2046BDE8104047
:104BB00000F004BC10BD000010484FF470514207D3
:104BC00006D0C01D0D4920F00700411AC1F57051F3
:104BD0000B4A00230144C2E900030839183A21F0C6
:104BE000070111604B600B600B1AC0E90013936062
:104BF0004FF00040536050617047000000110020EA
:104C0000A4000020144E154CA6F29C474FF080588B
:104C1000DFF84C9012E000BF00F09CFBF068C56824
:104C2000281D00F03BFBA068401EA0606068401E8D
:104C3000606000F0AFFB2846FFF7A3FF6068002824
:104C4000EAD138680128F9D9C9F80080BFF34F8F3D
:104C5000BFF36F8FF2E70000080900203800002042
:104C600004ED00E070B51D46049C51B1C4F800206D
:104C7000C4E90F010121204600F0F4FE84F84C50F5
:104C800070BD2460F4E700002DE9F05F8846DDE99F
:104C90000B941546834691009A460A9EA522206BE6
:104CA000FBF7E9FC6FF00301206B01EB8501084481
:104CB00020F00707780707D0502080F31188BFF352
:104CC0004F8FBFF36F8FFEE70025B8F1000F0FD0B5
:104CD0005FF00000221818F8001082F8341018F85D
:104CE000001011B1401C1028F4D384F8435001E0A7
:104CF00084F83450382E00D33726E662C4E91365B1
:104D0000201D00F000FB04F1180000F0FCFA246103
:104D1000C6F138006462A061656584F85850524657
:104D20005946384600F066FA2060B9F1000F01D00C
:104D3000C9F80040BDE8F09F30B5114900E01146C8
:104D40000A688242FBD34B685C18844203D14068F6
:104D500018444860084643681C18944209D1084C1E
:104D6000183C2468A24209D052681A4442600A687A
:104D700012680260814200D0086030BD0460F9E72B
:104D8000A400002070B5002441600B4D00619142E9
:104D900006D8D11A8269914206D2011D286907E01E
:104DA0009A4203D2994201D3012403E0011DE8682D
:104DB00000F0ACFA204670BD7400002010B5044627
:104DC00000F0C8FAA06B28B15FF0000400F0E2FA2E
:104DD000204610BD0124F9E730B589B03C4D6EE0A6
:104DE0000498002806DADDE90601059A9047049840
:104DF000002864DB069C606910B1201D00F04EFAAB
:104E000003A800F0D7F8024604980A2857D2DFE832
:104E100000F00505052D334A05052D3394F82800CB
:104E200040F0010084F828000599A069059B014421
:104E30002046FFF7A7FF68B3216A2046884794F809
:104E4000280040073BD5002000900598A169002369
:104E500042181946204601F09DFBD8B9502080F336
:104E60001188BFF34F8FBFF36F8FFEE714F8280F41
:104E700020F00100207022E094F8280040F00100AA
:104E800084F828000598A06128B1811813462046AF
:104E9000FFF778FF13E0502080F31188BFF34F8FA6
:104EA000BFF36F8FFEE794F82800810703D42046F4
:104EB00000F084FA03E020F0010084F828000022CA
:104EC00004A9286800F070FF002889D109B030BD1E
:104ED000740000202DE9FC410F46054600F032FC2D
:104EE00001A800F067F80446019818B101F0C0FA73
:104EF000BDE8FC81254EAFB130690068D0B3002712
:104F0000291B3A46306800F007FB01F0B1FA00288F
:104F1000EED11F494FF080500860BFF34F8FBFF3B1
:104F20006F8FE5E7A542EBD801F0A2FAF0682746BB
:104F3000C068C468201D00F0B1F994F8280041074A
:104F400019D5A0692B4641193A462046FFF71AFFAA
:104F5000A8B100200346014600902A46204601F0F1
:104F600019FB60B9502080F31188BFF34F8FBFF356
:104F70006F8FFEE707E020F0010084F82800216A27
:104F800020468847B4E70127BAE7000074000020F4
:104F900004ED00E00648416B096829B1416BC9681E
:104FA000C9684968816270474FF0FF31FAE7000035
:104FB0003800002070B5054601F03CF9064E044665
:104FC000B068844203D200F009F8012000E000201C
:104FD00028602046B46070BD74000020F8B5194DFB
:104FE00020E0C068C4680668201D00F057F9216AF7
:104FF0002046884794F82800400713D5A06930441C
:10500000B04206D924616060211DE86800F07EF995
:1050100008E000200346014600903246204601F099
:10502000B9FA38B1E86801680029DAD12969C5E917
:105030000310F8BD502080F31188BFF34F8FBFF3EA
:105040006F8FFEE77400002008484068401C4FF056
:10505000500080F3118804D0BFF34F8FBFF36F8FE0
:10506000FEE7BFF34F8FBFF36F8FFEE7AC0000206A
:10507000074CE068016841B1C0680021D0F8000029
:10508000FFF728FFFFF7A8FEF3E701210020F7E76D
:10509000740000202DE9F041044600F05BF994F91A
:1050A000455004F1240609E0606A48B1304601F039
:1050B000A7F908B100F080FA6D1E6DB2002DF3DC87
:1050C0004FF0FF3684F8456000F064F900F042F9D3
:1050D00094F9445004F1100709E0206948B13846BA
:1050E00001F08EF908B100F067FA6D1E6DB2002D67
:1050F000F3DC84F84460BDE8F04100F04BB90000F7
:105100002DE9F0410546002700F01CFB324E3068C7
:1051100008B9FFF751FD706905424ED1C5B3083596
:1051200068070ED005F00700C0F1080005446807C5
:1051300007D0502080F31188BFF34F8FBFF36F8FDC
:10514000FEE72DB37068854237D8234818300146F2
:105150000C6801E020460C466168A94202D2216831
:105160000029F7D131688C4227D007682168016097
:1051700060680837411B10290FD96019420708D011
:10518000502080F31188BFF34F8FBFF36F8FFEE77E
:1051900013E041606560FFF7CFFD61687068401AF9
:1051A0007060B268904200D2B06070690143002024
:1051B000C4E90001F068401CF06001F059F978077B
:1051C00007D0502080F31188BFF34F8FBFF36F8F4C
:1051D000FEE73846BDE8F0818C00002004490868ED
:1051E00018B10868026D521C02650868704700001B
:1051F0003800002010B5031F4FF080741C601B1F87
:1052000021F001011960191F044B0B6014390A6069
:10521000091F6FF0020244380A6010BD49500008AF
:10522000F7B516469DF800000F463F2802D93F20EB
:105230008DF80000012EC0B202D940F0400001E01C
:1052400020F04000C0B240F080008DF8000011480E
:105250000F4D007810B1012803D101E0012400E0D6
:105260000224002221462846FDF780F80A23012265
:1052700069460948FDF79EFD0A233246394606482D
:10528000FDF7EEFC012221462846FDF76FF8FEBD32
:10529000001002400C00002058010020D0E901322B
:1052A00001699A60D0E901235A604A68824201D1BB
:1052B00082684A60002202610868401E086008682F
:1052C00070470000034B036003F15C00086080201E
:1052D00010607047480A0020044B036003F15C0033
:1052E00008604FF48070106070470000A40C00202C
:1052F00000F108014FF0FF32C0E90112C160016105
:1053000000210160704700210161704730B50B68D2
:105310005A1C02D000F1080202E0026904E02246B1
:10532000546825689D42FAD953684B6099608A6039
:10533000516008610168491C016030BD42684A60E3
:1053400093688B6093685960916008610168491C9B
:1053500001607047502080F31188BFF34F8FBFF377
:105360006F8F0A494868401C486001280CD10848E2
:10537000006810F0FF0F07D0502080F31188BFF3B2
:105380004F8FBFF36F8FFEE770470000AC00002027
:1053900004ED00E00849486828B1401E486001D18A
:1053A00080F311887047502080F31188BFF34F8F2E
:1053B000BFF36F8FFEE70000AC00002070B500283F
:1053C0002AD0164DA0F1080460686969084207D127
:1053D000502080F31188BFF34F8FBFF36F8FFEE72C
:1053E00022683AB1502080F31188BFF34F8FBFF38A
:1053F0006F8FFEE78843606000F0A4F96068696819
:10540000084468602046FFF797FC2869401C286123
:10541000BDE8704001F02CB870BD00008C00002089
:105420004FF0E02000210161816105494FF47A725B
:105430000968B1FBF2F1491E416107210161704722
:105440003400002010B5FAF75DFF114910280ED383
:1054500000F1E02090F8F0030A78904207D2502043
:1054600080F31188BFF34F8FBFF36F8FFEE70948BA
:105470000068896800F4E060884207D9502080F312
:105480001188BFF34F8FBFF36F8FFEE710BD000091
:10549000AC0000200CED00E010B5084B002200BF6E
:1054A00053F832401CB1521C082AF9D310BD43F8FE
:1054B000321003EBC201486010BD00002C04002034
:1054C00010B504000AD000F013F894F84600002844
:1054D0000CD12046BDE81040FFF770BF502080F38C
:1054E0001188BFF34F8FBFF36F8FFEE710BD000031
:1054F000084A002102EBC1035B68834206D1002009
:1055000042F8310002EBC10148607047491C08298C
:10551000F0D370472C04002070B515460E460446A3
:10552000FFF718FF94F944100020491C01D184F8BA
:10553000440094F94510491C01D184F84500FFF757
:1055400029FFA06B28B92A46314604F1240000F057
:1055500051F82046BDE87040FFF79CBD10B5020031
:1055600014D00F48006B38B1502080F31188BFF37E
:105570004F8FBFF36F8FFEE700F0E4F80021104675
:10558000FFF7F4F900F074FF002807D105494FF048
:1055900080500860BFF34F8FBFF36F8F10BD0000C6
:1055A0003800002004ED00E002490A6A0260C96880
:1055B000416070473800002001490120C8617047F0
:1055C0003800002010B50C4650B10949096818315F
:1055D000FFF79CFE2046BDE810400121FFF7C6B949
:1055E000502080F31188BFF34F8FBFF36F8FFEE71A
:1055F0003800002070B514460D4668B10A490968A4
:105600001831FFF79BFE0CB14FF0FF3521462846BD
:10561000BDE87040FFF7AAB9502080F31188BFF3AE
:105620004F8FBFF36F8FFEE73800002070B5040086
:105630003ED0226DA2B1E06C884200D30146E06A00
:10564000884235D0012A33D11A4D2A6894420FD1AD
:10565000502080F31188BFF34F8FBFF36F8FFEE7A9
:10566000502080F31188BFF34F8FBFF36F8FFEE799
:10567000E162A269002A02DBC1F13801A1610E4E8C
:1056800000EB8000616906EB8000814210D1201D93
:10569000FFF704FEE06A2969884200D9286100EB1F
:1056A000800006EB8000211DBDE87040FFF746BE7C
:1056B00070BD0000380000206C04002030B587B0B9
:1056C0000024039405AA04A903A80494FFF7FAFD93
:1056D000DDE903010094CDE90110002315A117486D
:1056E000059A00F06EFD164D0028E8621FD000F00C
:1056F00021FF012809D0401C19D1502080F31188C6
:10570000BFF34F8FBFF36F8FFEE7502080F31188F8
:10571000BFF34F8FBFF36F8F4FF0FF30A8620120B0
:105720006861EC6007B0BDE8304000F079B807B0C0
:1057300030BD000049444C4500000000054C000805
:10574000380000200248016B491C016370470000CB
:1057500038000020164810B5016B11B10121C1615C
:1057600010BD0021C1610169124A01E0B9B1491EB1
:1057700001EB810352F82330002BF7D001EB8103BA
:1057800002EB830202F1080453685B685360A34292
:1057900001D15B685360DA680260016110BD50207E
:1057A00080F31188BFF34F8FBFF36F8FFEE70000C8
:1057B000380000206C04002073B59DF800003F28DD
:1057C00002D93F208DF8000000F07F008DF8000026
:1057D0001148104D007810B1012803D101E00124D7
:1057E00000E00224002221462846FCF7BFFD0A23E0
:1057F000012269460948FDF7DDFA0A23012201A9C1
:105800000648FDF7D7FA012221462846FCF7AEFDEF
:105810007CBD0000001002400C0000205801002058
:105820001CB537480168374A914207D1502080F3B0
:105830001188BFF34F8FBFF36F8FFEE700683149C8
:10584000491E884207D1502080F31188BFF34F8F43
:10585000BFF36F8FFEE72C4908780190FF20087096
:1058600008788DF800009DF800009DF8002000F0F9
:10587000F000904207D0502080F31188BFF34F8F83
:10588000BFF36F8FFEE79DF80000204C00F0500042
:1058900020700720A06005E09DF8002052008DF8E0
:1058A0000020401E9DF800201206F5D4A0600328B9
:1058B00007D0502080F31188BFF34F8FBFF36F8F55
:1058C000FEE74FF44070A060019808700C4820304B
:1058D000016841F470010160016841F070410160AC
:1058E000FFF79EFD00206060FAF7D4FC08480168CD
:1058F00041F040410160FAF7B9FC00201CBD0000F6
:1059000000ED00E071C20F4100E400E0AC000020B7
:1059100034EF00E010B5502080F31188BFF34F8FB3
:10592000BFF36F8F00F08CFC18B104494FF080502A
:105930000860002080F3118810BD000004ED00E035
:1059400010B50C4648B184420FD9502080F311881D
:10595000BFF34F8FBFF36F8FFEE7502080F31188A6
:10596000BFF34F8FBFF36F8FFEE70222002100F0DD
:1059700024F8002800D0846310BD38B50C4648B127
:1059800084420FD9502080F31188BFF34F8FBFF3AB
:105990006F8FFEE7502080F31188BFF34F8FBFF366
:1059A0006F8FFEE70221134600220091114600F09E
:1059B00025F8002800D0846338BDF8B517460E4698
:1059C000050013D005FB06F05030FFF799FB0400EB
:1059D0000AD0002084F8460004F150023B463146CC
:1059E00028460094FFF73EF92046F8BD502080F38A
:1059F0001188BFF34F8FBFF36F8FFEE738B5049D5B
:105A000018B153B1CAB181B120E0502080F31188A0
:105A1000BFF34F8FBFF36F8FFEE7502080F31188E5
:105A2000BFF34F8FBFF36F8FFEE7502080F31188D5
:105A3000BFF34F8FBFF36F8FFEE739B1502080F374
:105A40001188BFF34F8FBFF36F8FFEE750241C46C2
:105A5000012384F846302B460094FFF703F92046D3
:105A600038BD000070B50D46040025D0FFF772FC6C
:105A7000D4E90F20216802FB0011A1600021A1637D
:105A8000216861600A46D4E90F01401E00FB012134
:105A9000E16021464FF0FF3001F8440F487004F1F7
:105AA00010008DB1FFF724FC04F12400FFF720FC67
:105AB000FFF770FC012070BD502080F31188BFF308
:105AC0004F8FBFF36F8FFEE721690029F0D000F000
:105AD00097FC0028ECD004494FF080500860BFF3D9
