:020000040800F2
:10000000D8520020F1020008FF250008D322000882
:10001000FD250008BD080008DD2C000800000000D8
:100020000000000000000000000000003102000895
:1000300065090008000000008D0200088D260008F8
:100040000B0300080B0300080B0300080B03000858
:100050000B0300080B0300080B0300080B03000848
:100060000B0300080B0300080B0300080B03000838
:100070000B0300080B0300080B0300080B03000828
:100080000B0300080B0300080B0300080B03000818
:100090000B0300080B0300080B0300080B03000808
:1000A0000B0300084D2700080B0300080B03000892
:1000B000592700080B0300080B0300080B03000876
:1000C0000B0300080B0300080B0300080B030008D8
:1000D0000B030008912C00080B0300080B03000819
:1000E0000B0300080B0300080B0300080B030008B8
:1000F0000B0300080B0300080B0300080B030008A8
:100100000B0300080B0300080B0300080B03000897
:100110000B0300080B0300080B0300080B03000887
:100120000B0300080B0300080B0300080B03000877
:100130000B0300080B0300080B0300080B03000867
:100140000B0300080B0300080B0300080B03000857
:100150000B0300080B0300080B0300080B03000847
:100160000B0300080B0300080B0300080B03000837
:100170000B0300080B0300080B030008000000003D
:100180000B0300080B03000800F002F800F041F830
:100190000AA090E8000C82448344AAF10107DA45E2
:1001A00001D100F036F8AFF2090EBAE80F0013F0F3
:1001B000010F18BFFB1A43F0010318474447000022
:1001C00064470000103A24BF78C878C1FAD85207B3
:1001D00024BF30C830C144BF04680C6070470000C1
:1001E0000023002400250026103A28BF78C1FBD840
:1001F000520728BF30C148BF0B607047732900F019
:100200003482002070471FB504F0FCFA1FBD10B502
:1002100010BD00F07FFA1146FFF7F5FF02F098FDE0
:1002200000F09DFA03B4FFF7F2FF03BC02F067FD94
:100230002C4B19680868B0E8F04F80F30988BFF3C9
:100240006F8F4FF0000080F31188704700000000AE
:1002500008480068006880F308884FF0000080F3C9
:10026000148862B661B6BFF34F8FBFF36F8F00DFA4
:1002700000BF00BF08ED00E0DFF80C00016841F4AA
:1002800070010160704700BF88ED00E0EFF3098066
:10029000BFF36F8F134B1A681EF0100F08BF20EDCD
:1002A000108A20E9F04F106009B44FF0500080F33D
:1002B0001188BFF34F8FBFF36F8F03F0C9FC4FF06E
:1002C000000080F3118809BC19680868B0E8F04F95
:1002D0001EF0100F08BFB0EC108A80F30988BFF33E
:1002E0006F8F704724000020EFF3058070470000F7
:1002F0000948804709480047FEE7FEE7FEE7FEE7BA
:10030000FEE7FEE7FEE7FEE7FEE7FEE704480549F5
:10031000054A064B704700003D2700088901000888
:10032000D84C0020D8520020D84E0020D84E0020B3
:10033000704753EA020C00F069802DE9F04B4FF052
:100340000006002B1FBFB3FA83F503FA05F424FA65
:1003500005F65E4012BF1643B2FA82F502FA05F4C2
:10036000C5F120051EBF22FA05FC44EA0C04203525
:1003700056EA044C4FEA144418BF641C4FF00008BE
:100380004FF00009904271EB030C39D3002919BFDB
:10039000B1FA81F701FA07F6B0FA80F700FA07F62A
:1003A000C7F120071EBF20FA07FC46EA0C062037DB
:1003B000B6FBF4FCA7EB0507103F07F01F0BCBF1D2
:1003C00020060CFA0BFB2CFA06F644BFB3460026B7
:1003D000202FA4BF5E464FF0000B5BEA060C08BF5F
:1003E0004FF0010B19EB0B09ABFB027C48EB060845
:1003F000C01B06FB02CC0BFB03CC71EB0C01C1E76D
:100400000B46024641464846BDE8F08B13B54FF017
:1004100000004FF00001AFF30080BDE81C407047C2
:100420000FB4044910B503AA029800F023F910BCD8
:100430005DF814FB100000202DE9F0410E46044643
:10044000002020622046E168884730B3252805D087
:10045000D4E901219047206A401CF2E7E168204678
:1004600000278847050018D0A5F14100192802D8B7
:1004700020354FF400673246294620462760FFF7B3
:10048000BDFE40B1012804D0F61D26F0070608364F
:10049000D8E7361DD6E72846DAE7206ABDE8F081BE
:1004A00070B50C460546012A05D02878800600D58F
:1004B000EA69002302E0012305E05B1C934202D2BB
:1004C000E05C0028F9D1A869E618C01AA861286A7A
:1004D000184428622846AFF3008004E0D5E90121E2
:1004E00014F8010B9047B442F8D32846AFF30080CC
:1004F00070BD032A40F2308010F0030C00F015802C
:1005000011F8013BBCF1020F624498BF11F801CB16
:1005100000F8013B38BF11F8013BA2F1040298BF7B
:1005200000F801CB38BF00F8013B11F0030300F0E5
:100530002580083AC0F0088051F8043B083A51F889
:1005400004CBA0E80810F5E7121D5CBF51F8043B8E
:1005500040F8043BAFF30080D20724BF11F8013B01
:1005600011F801CB48BF11F8012B24BF00F8013B63
:1005700000F801CB48BF00F8012B704710B5203AB6
:10058000C0F00B80B1E81850203AA0E81850B1E84C
:100590001850A0E81850BFF4F5AF5FEA027C24BF02
:1005A000B1E81850A0E8185044BF18C918C0BDE8F9
:1005B00010405FEA827C24BF51F8043B40F8043BC2
:1005C00008BF7047D20728BF31F8023B48BF11F877
:1005D000012B28BF20F8023B48BF00F8012B7047D1
:1005E00002F0FF0343EA032242EA024200F056B857
:1005F0004FF0000200B5134694469646203922BFBC
:10060000A0E80C50A0E80C50B1F12001BFF4F7AF06
:10061000090728BFA0E80C5048BF0CC05DF804EBE8
:10062000890028BF40F8042B08BF704748BF20F856
:10063000022B11F0804F18BF00F8012B7047704754
:1006400070477047704710B5436913B1AFF300802E
:1006500001E0FFF725FF012010BD127800F1240111
:100660000A7000224A700122EDE711684FF0FF3254
:10067000E9E70000074B70B50D467B4400F033F806
:100680000446284600F042F810B14FF0FF3070BD2C
:10069000204670BDBF2600004FF000020429C0F0C4
:1006A000128010F0030C3FF4A5AFCCF1040CBCF1A8
:1006B000020F18BF00F8012BA8BF20F8022BA1EBF6
:1006C0000C01FFF797BF5FEAC17C24BF00F8012B44
:1006D00000F8012B48BF00F8012B704701694A1C44
:1006E00002610878704700B58FB0CDE90131002173
:1006F000059105497944CDE9031011466846FFF795
:100700009BFE0FB000BD0000E5FFFFFF007B00F087
:1007100080007047754600F02BF8AE46050069462C
:10072000534620F00700854618B020B5FFF7EEFDD0
:10073000BDE820404FF000064FF000074FF00008E2
:100740004FF0000B21F00701AC46ACE8C009ACE863
:10075000C009ACE8C009ACE8C0098D46704710B5C7
:100760000446AFF300802046BDE81040FFF75ABDB5
:1007700000487047744C0020464910B54A6822F47E
:1007800040324A604A6843681A434A6001684A68CE
:1007900022F480724A6001684A68036942EA0322CF
:1007A0004A6001684A6822F040724A6001684A68FB
:1007B00083681A434A6001688A6822F400628A608A
:1007C00001688A68C3681A438A60816A6FF0706240
:1007D000D14201688A6822F070628A6001688A6882
:1007E0000CD0836A1A438A6001688A6822F04052FA
:1007F0008A6001688A68C36A1A4301E022F04052A5
:100800008A6001688A6822F002028A6001688A6848
:10081000037E42EA43028A6090F8201000290168B2
:100820004A680FD042F400624A6001684A6822F4C4
:1008300060424A6001684A68174C436A04EB4333DC
:100840001A4301E022F400624A600168CA6A22F495
:100850007002CA620168CA6A838B104C04EB0353AE
:100860001A43CA6201688A6822F400728A600168C9
:100870008A6890F8303042EA43228A6001688A68C8
:1008800022F480628A6001688A68406942EA8020B6
:10089000886010BD0023014000E0FFFF0000F0FF72
:1008A0000FB4282270B50446109D00F8041B06A959
:1008B000FFF764FEE56270BC5DF814FBFEE7000024
:1008C00001681823CAB2103AB2FBF3F2054B6FF37A
:1008D0000901032A9B5CC36500D9091D816508468F
:1008E00070470000B448000810B5014600208B692D
:1008F0008A6A4FF0C07453B1B3F5005F15D072B17E
:10090000012A0CD0022A0AD0032A09D104E01AB124
:10091000012A06D0022A03D1C96AC90100D50120E3
:1009200010BDC96AA142FAD010BD002AF7D0012A31
:10093000F2D0022AF3D0032AF3D010BD30B50468F8
:10094000256825F480252560046863608368402B52
:10095000036803D099600068C26030BD9A60006887
:10096000C16030BD704772B6FEE7000078B5002464
:10097000009490F83C20012A19D0012280F83C20F4
:100980000A6807230568092A13D9EE680A3A02EBB8
:10099000420293409E43EE600B788A680A3B03EB69
:1009A00043039A400368DD682A43DA6010E00220BE
:1009B00078BD2E6902EB420293409E432E610B7874
:1009C0008A6803EB43039A4003681D692A431A614E
:1009D0004A681F23072A13D205686E6B521E02EB6A
:1009E000820293409E436E630B790A885B1E92B22B
:1009F00003EB83039A4003685D6B2A435A6327E045
:100A000005680D2A12D22E6BD21F02EB8202934090
:100A10009E432E630B790A88DB1F92B203EB83039C
:100A20009A4003681D6B2A431A6311E0EE6A0D3A7F
:100A300002EB820293409E43EE620B790A880D3BE3
:100A400092B203EB83039A400368DD6A2A43DA62B9
:100A5000164B0568144A9D4206D10D68122D03D12C
:100A6000556845F48005556005689D4218D10B68AE
:100A7000102B01D0112B13D1536843F400035360A2
:100A8000096810290CD10A490A4A0968B1FBF2F138
:100A900001EB8101490000E0491E00910029FBD1D2
:100AA00080F83C40002078BD002301400020014038
:100AB0002000002040420F0070B504004FF00005F8
:100AC00003D0206C002610B107E0012070BD204645
:100AD00000F01CF8666484F83C60206CC00610D4FA
:100AE000206C20F4885040F0020020642046FFF77C
:100AF00043FE6664206C20F0020040F00100206498
:100B000000E0012584F83C60284670BD10B586B031
:100B1000044614216846FFF76BFD1149206888429E
:100B20001CD110480021026842F480720260006803
:100B300000F4807005900B481438026842F00102FE
:100B40000260006800F00100059001200090032081
:100B5000CDE901016946044800F048FA06B010BD2D
:100B6000002001404438024000000240F0B590F8F7
:100B700020500468A468012D05D0022D03D0416ADD
:100B800041F4802157E014F0406F01D1E5004FD5CA
:100B9000C4F301640125A5401D608D684FF4C07346
:100BA0009DB1CE6835434E6845EAC605066803EB3D
:100BB0000417F5514FF4C275076805EB04150E696B
:100BC0007E51097D012905D009E00E88CD6845EAEE
:100BD0004655EBE701684E5946F480764E5111793F
:100BE000D579567941EA056195792D0445EA0625BE
:100BF00029434FF4C676056806EB0416A95111780F
:100C0000D57841EA0561957852782D0445EA0222AB
:100C100011434FF4C475026805EB04155151006887
:100C200003EB0411425842F0010242500020F0BD93
:100C3000416A41F4001141620120F0BD02460020EA
:100C400092F82010012901D002290CD111688A687C
:100C5000520100D501208A68120100D5401C896824
:100C6000C90000D5401C704770B5040003D094F84B
:100C7000200010B104E0012070BD204600F082F891
:100C80002068016841F00101016000F0B5FA0546F5
:100C9000052604E000F0B0FA401B0A2811D82068AD
:100CA0004068C007F6D02068016821F002010160A9
:100CB00000F0A2FA05460BE000F09EFA401B0A285D
:100CC00006D9606A40F40030606284F82060D2E7A0
:100CD000206840688007EFD4207E012820680168E2
:100CE0003DD021F080010160607E0128206801680C
:100CF00038D021F040010160A07E01282068016801
:100D000033D021F020010160E07E012820680168D5
:100D10002ED041F010010160207F01282068016879
:100D200029D021F008010160607F01282068016856
:100D300024D021F004010160D4E902010843D4E980
:100D40000412114308436168491E08432168C861C1
:100D500000206062012084F82000002070BD41F076
:100D60008001C0E741F04001C5E741F02001CAE73A
:100D700021F01001CFE741F00801D4E741F0040170
:100D8000D9E7000010B586B0044614216846FFF785
:100D90002FFC14492068884221D1134800210268A1
:100DA00042F000720260006800F0007005900E488A
:100DB0001038026842F001020260006800F0010091
:100DC00005904FF4C05000900220CDE901010320AE
:100DD0000390092004906946044800F007F906B022
:100DE00010BD000000640040403802400000024096
:100DF0002DE9F0410446876D00F0FEF9064694F8AF
:100E000035000025022806D08020606584F8345023
:100E10000120BDE8F0812068016821F01601016021
:100E20002068416921F080014161206C08B9A06C03
:100E300020B12068016821F0080101602068016884
:100E400021F0010101600CE000F0D6F9801B0528BB
:100E500007D920206065032084F8350084F83450D9
:100E6000D7E720680068C007EED194F85C103F20F7
:100E70008840B860012084F8350084F834500020A0
:100E8000C7E790F83510022903D080214165012081
:100E90007047052180F835100068016821F00101D4
:100EA00001600020704700002DE9F041044600F089
:100EB000A3F906465CB1022084F83500002584F8C9
:100EC00034502068016821F0010101600DE001202B
:100ED000BDE8F08100F090F9801B052805D920209D
:100EE0006065032084F83500F2E720680068C007D9
:100EF000F0D12268116820480140D4E90103184369
:100F0000D4E903363343184363691843A36918438C
:100F1000E3691843236A18430843616A042903D12B
:100F2000D4E90B1319430843106020684069666ACE
:100F300020F0070130460E43012704280CD1A06A97
:100F40000643E06A40B12046FFF7CEFC20B14020C6
:100F5000606584F83570BAE7206846612046FFF77F
:100F6000AFFC94F85C203F2191408160656584F876
:100F700035700020ACE700003F8010F02DE9F04113
:100F80000446866D90F83400002501280DD001201C
:100F900084F8340094F835700020012F07D084F8CD
:100FA000340002252846BDE8F0810220FBE7022735
:100FB00084F8357060652046FFF7C0FC94F85C103B
:100FC0003F208840B0602068016841F01601016050
:100FD000206C20B12068016841F0080101602068A0
:100FE000016841F001010160DCE700002DE9F84FE4
:100FF000DFF8BCA10022012503264FF00F090AF1FA
:10100000040BAAF1040E00BF0B6805FA02F423409A
:10101000A34270D10F7907F00307012F01D0022FEF
:1010200016D187684FEA420806FA08FC27EA0C073F
:10103000D1F80CC00CFA08FC4CEA070CC0F808C048
:101040004768A7430C79C4F3001494403C434460C0
:101050000C79E443A4070AD0C4684FEA420C06FAAC
:101060000CF7BC438F6807FA0CF72743C7600C796D
:1010700004F00304022C12D1D40800EB840CDCF839
:1010800020405707FF0E09FA07F824EA0804D1F8B0
:10109000108008FA07F848EA0408CCF820800468B1
:1010A0004FEA420C06FA0CF7BC430F7907F003072E
:1010B00007FA0CF7274307604C6814F4403F70D0E0
:1010C0003C4C276847F480472760246822F00307D8
:1010D00004F480440094384C07EB040CDCF8084816
:1010E00097074FEA177809FA08F7BC43334FB8421D
:1010F00002D1002724E054E0314FB84201D101274A
:101100001EE0304FB84201D1022719E02E4FB842FD
:1011100001D1032714E02D4FB84201D104270FE07D
:101120002B4FB84201D105270AE02A4FB84201D11E
:10113000062705E0284FB84201D1072700E008271D
:1011400007FA08F72743CCF80878DAF80040574642
:10115000D1F804C09C435FEACC2C00D51C433C6012
:10116000DBF800405F46D1F804C09C435FEA8C2C5A
:1011700000D51C433C60DEF800407746D1F804C03F
:101180009C435FEA8C3C00D51C433C60084F083F01
:101190003C68D1F804C09C435FEACC3C00D51C43BA
:1011A0003C60521C102AFFF42FAFBDE8F88F0000FE
:1011B000083C014044380240003001400000024039
:1011C0000004024000080240000C024000100240EF
:1011D0000014024000180240001C0240426921EA4B
:1011E00002030A4043EA0241816170470AB181610A
:1011F00070470904FBE70000014880687047000061
:101200001400002002488168027811448160704710
:10121000140000200B4810B5016841F40071016012
:10122000016841F480610160016841F480710160EE
:10123000032000F099F80F2000F006F800F04AF8BB
:10124000002010BD003C024030B505461C4887B068
:101250000024016841F001010160006806A900F066
:101260000100009001A800F02BF900F059F9154990
:101270004000B0FBF1F11548134A491E026040F2EC
:10128000E732C0E90324C0E90114846100F072FC74
:10129000040012D10D4800F0B7FC04000DD1192054
:1012A00000F034F8102D07D200222946192000F052
:1012B0003BF80748056000E0012407B0204630BD38
:1012C0004438024040420F00000001405803002013
:1012D000180000200C4882B0016841F48041016090
:1012E000006800F4804000900748001F016841F04A
:1012F000805101600068002200F0805000900F21B2
:10130000901E02B000F010B844380240002809DBFB
:1013100000F01F02012191404009800000F1E0200F
:10132000C0F8001170470000F0B40E4B1B680C466B
:10133000C3F30223C3F10705042D00D90425191DA9
:10134000072901D2002300E0DB1E012606FA05F181
:10135000491E214099409E40761E16403143F0BC04
:1013600001F0BDBC0CED00E0064900F00702086882
:101370004FF6FF03184040EA0220034A104308607A
:10138000704700000CED00E00000FA052DE9F04781
:101390000E46050065D0DFF81481D8F80000F7B2DA
:1013A00000F00700B04207D288F80070D8F80000BB
:1013B00000F00700B04254D128683D4C810712D597
:1013C000400703D5206840F4E050206028780007EB
:1013D00003D5206840F4604020602068A96820F0B0
:1013E000F000084320602878C0072DD03049686895
:1013F0000839012812D0022813D0032811D0096817
:10140000890700292DDA216821F0030101432160B9
:10141000FFF7F2FE814641F2883A0EE0096889033F
:10142000EFE709688901ECE7FFF7E6FEA0EB0901A9
:10143000514502D90320BDE8F0872068696800F0B3
:101440000C00B0EB810FEFD1D8F80010404601F04E
:101450000701B14207D90770006800F00700B042E9
:1014600001D00120E7E72878400705D52068E96822
:1014700020F4E050084320602878000706D5206853
:10148000296920F4604040EAC100206000F058F86B
:101490002168084AC1F30311515CC840064908603D
:1014A00006480068FFF7D0FE0020C4E7003C024079
:1014B00008380240BC480008200000201800002026
:1014C0000F2202600C4A136803F0030343601368A1
:1014D00003F0F0038360136803F4E053C360126801
:1014E0004FF4E05303EAD20202610448006800F0BE
:1014F000070008607047000008380240003C0240C6
:101500000448054900680968044AC1F38221515C16
:10151000C84070472000002008380240CC4800082E
:101520000448054900680968044AC1F34231515C26
:10153000C84070472000002008380240CC4800080E
:10154000154810B5006810F00C02144813D0411073
:10155000042A0FD0082A0ED10F4C241F22682368BA
:1015600002F03F025B0207D52068C0F38810A0FBA1
:10157000010106E0084610BD2168C1F38811A1FBF6
:1015800000010023FEF7D5FE2168C1F30141491C8B
:101590004900B0FBF1F010BD083802400024F4000F
:1015A0002DE9F84F04006ED02078DFF84C93C00787
:1015B000A9F104054AD009F104000168C1F38101D1
:1015C000012908D00068C0F3810002280AD1D9F8A7
:1015D0000000400206D52868800337D560680028DF
:1015E000E1D033E06068B0F5803F10D0B0F5A02FB7
:1015F000286810D020F480302860286820F48020EB
:1016000028606068A8B1FFF7F7FD06460DE028687E
:1016100040F48030F4E740F480202860F7E700BF12
:10162000FFF7EAFD801B642873D828688003F7D58C
:101630000CE0FFF7E1FD064605E000BFFFF7DCFD2B
:10164000801B6428F0D828688003F7D42078DFF85E
:10165000AC8280074FF0000A3ED5A748001D016804
:1016600011F00C0F08D00068C0F3810002280BD1E4
:10167000D9F80000400207D42868800716D5E06832
:10168000012800D112E033E1E068B8B10120C8F8C8
:101690000000FFF7B1FD064605E000BFFFF7ACFD17
:1016A000801B0228C0D828688007F7D528682169E0
:1016B00020F0F80040EAC10028600DE0C8F800A062
:1016C000FFF79AFD064604E0FFF796FD801B02280F
:1016D0001FD828688007F7D42078000722D5864FC6
:1016E00087486169703771B101210160FFF784FD9E
:1016F000064604E0FFF780FD801B022809D8386801
:101700008007F7D50EE0C0F800A0FFF775FD06468C
:1017100005E082E0FFF770FD801B02287DD8386865
:101720008007F7D42078400768D5DFF8CCB10027D0
:101730000BF13C0BDBF80000C0000BD4DBF8001011
:1017400041F08051CBF80010DBF80000012700F0D9
:10175000805000906B4E3068C00510D4306840F463
:1017600080703060FFF748FD009005E0FFF744FD12
:101770000099401A022850D83068C005F6D55E4E50
:10178000A0686C3601280FD00528306810D020F0F2
:1017900001003060306820F004003060A068B8B10B
:1017A000FFF72AFD00900FE0306840F00100F4E7F9
:1017B00040F004003060F7E7FFF71EFD0099411A82
:1017C00041F28830814266D830688007F4D50EE057
:1017D000FFF712FD009007E0FFF70EFD0099411A98
:1017E00041F28830814256D830688007F4D42FB156
:1017F000DBF8001021F08051CBF80010A069C8B3CD
:101800003D49091D0968C1F3810102294AD0022816
:10181000504607D0C8F8600000E03CE0FFF7ECFC61
:1018200004463BE04746C8F86000FFF7E5FC064683
:1018300005E000BFFFF7E0FC801B02282BD82868DA
:101840008001F7D4D4E907010843A16A2E4A490868
:1018500002EB0141626A41EA8211084394F82C10BC
:1018600040EA0161C9F8001001203866FFF7C4FCA6
:10187000044606E03EE000BFFFF7BEFC001B022866
:1018800009D828688001F7D534E000BFFFF7B4FC21
:10189000001B022802D90320BDE8F88F28688001C8
:1018A000F4D427E00128F7D0D9F80000E26900F469
:1018B000800191421CD1226A00F03F01914217D170
:1018C00047F6C071626A0140B1EB821F10D1A26A73
:1018D0004FF0FF3300F4403103EB5202B1EB024F03
:1018E00006D194F82C1000F07060B0EB016F01D0BD
:1018F0000120D1E70020CFE7043802400000474232
:10190000800E4742007000400000FFFF70B50400E9
:1019100009D0606A002540B125616561A56294F82F
:10192000510040B10CE0012070BD6068B0F5827FCD
:10193000F4D0E561F2E784F85050204600F044F816
:10194000022084F851002068016821F04001016004
:10195000A088218900F4827001F404410843A18920
:1019600001F400610843217C01F002010843217D5C
:1019700001F001010843218B01F400710843217F2C
:1019800001F03801084394F8201001F08001084369
:10199000218D01F40051084321680860A0690421E9
:1019A00001EA104094F8241001F010010843216866
:1019B00048602068C16921F40061C161656501204A
:1019C00084F85100002070BDF0B587B004461421A2
:1019D0006846FEF70DFE3B48236800243A4902257D
:1019E0000326052783421AD137481430026842F48F
:1019F00080520260006800F480500590086840F052
:101A000001000860086802AA00F001000590E020CB
:101A1000CDE9000582E8D00069462C4830E02A4A2A
:101A2000DFF8ACC010322B4863452DD1136843F466
:101A300080431360126802F4804205920A6842F003
:101A400004020A600A6802F0040205920A6842F081
:101A500002020A60096802AB01F0020105910C2143
:101A6000CDE9001583E8D0006946FFF7BFFA4FF4CF
:101A70008060CDE9000502AB694683E8D0001648D6
:101A8000FFF7B4FA07B0F0BD144FBB42FAD11368A8
:101A900043F400431360126802F4004205920A689E
:101AA00042F004020A600968029401F00401059101
:101AB0004FF4E051CDE900150621CDE903616946F7
:101AC000DEE70000003001403038024000000240F4
:101AD000003800400008024000040240003C004082
:101AE0007047704770B590F83C20012A32D001242D
:101AF00080F83C40022280F83D2003685A689D68C7
:101B000022F070060A6832435A60134B02689A4208
:101B100014D0B2F1804F11D0104B9A420ED0104B1E
:101B20009A420BD00F4B9A4208D00F4B9A4205D0E5
:101B30000E4B9A4202D00E4B9A4204D1496825F0CE
:101B400080031943916080F83D40002180F83C10EB
:101B5000084670BD022070BD000001400004004036
:101B600000080040000C004000040140004001401B
:101B70000018004010B5040003D094F83D0010B1E7
:101B800007E0012010BD002084F83C00204600F052
:101B90001FF8022084F83D00211D206800F0F4FDAC
:101BA000012084F8460084F83E0084F83F0084F861
:101BB000400084F8410084F8420084F8430084F82F
:101BC000440084F8450084F83D00002010BD00006A
:101BD00008B50068B0F1804F12D10A48016841F0A1
:101BE000010101600068002200F001000090052161
:101BF0001C20FFF799FBBDE808401C20FFF786BBBF
:101C000008BD00004038024090F83D10012901D085
:101C100001207047022180F83D100168CA6842F037
:101C20000102CA6000681149884214D0B0F1804FA7
:101C300011D00F4988420ED00E4988420BD00E4970
:101C4000884208D00D49884205D00D49884202D00B
:101C50000C49884204D1816801F00701062903D0AC
:101C6000016841F00101016000207047000001405F
:101C70000004004000080040000C00400004014047
:101C8000004001400018004070B5044690F83C0048
:101C90000025012817D0012684F83C60022084F832
:101CA0003D002068826822F0770222F47F42826041
:101CB0000868502838D00DDC20284FD005DC90B3C0
:101CC000102811D14AE0022070BD302846D04028AB
:101CD0000AD13BE060282FD070280DD0B0F5805F8E
:101CE00003D0B0F5005F12D0012584F83D600020DC
:101CF00084F83C00284670BDCB68D1E901212068FA
:101D000000F0AEFD2068816841F0770109E0CB6802
:101D1000D1E90121206800F0A3FD2068816841F429
:101D200080418160E1E719E0CA684968206800F0F5
:101D3000A9FD5021206806E0CA684968206800F0C3
:101D4000B2FD6021206800F095FDCEE7CA684968C1
:101D5000206800F097FD40212068F4E722680146E2
:101D60001046F0E770472DE9F04104460068C66868
:101D700005694FF00007A90713D5B10711D5F91E62
:101D8000016101202077206880698007204602D009
:101D9000FFF7E8FF04E000F07EF8204600F07CF852
:101DA0002777680716D5700714D521686FF00400EF
:101DB0000861022020772068806910F4407F204667
:101DC00002D0FFF7CFFF04E000F065F8204600F0F6
:101DD00063F82777280715D5300713D521686FF0EA
:101DE00008000861042020772068C0698007204629
:101DF00002D0FFF7B7FF04E000F04DF8204600F0F6
:101E00004BF82777E80616D5F00614D521686FF051
:101E100010000861082020772068C06910F4407F16
:101E2000204602D0FFF79EFF04E000F034F8204681
:101E300000F032F82777E80708D0F00706D02168CD
:101E40006FF001000861204600F028F8280608D548
:101E5000300606D521686FF0800008612046FFF744
:101E60003FFE680608D5700606D521686FF0400071
:101E70000861204600F01CF8A8060AD5B00608D56F
:101E800021686FF0200008612046BDE8F041FFF7AF
:101E900028BEBDE8F0817047704700000068034924
:101EA000884201D1FFF7AEB9704700000000014041
:101EB0007047704710B504460068406994F84110B7
:101EC000C0F3C010212911D180B12068143050E82E
:101ED000001F21F0800140E80012002AF5D1A06B1C
:101EE00008B1FEF785FF204600F095FD20684069A7
:101EF00094F84210C0F38010222911D180B12068DB
:101F0000143050E8001F21F0400140E80012002A80
:101F1000F5D1E06B08B1FEF76BFF204600F054FDF1
:101F2000002010BD70470000F8B50168044608683D
:101F3000CA684B6910F00F0F4FF0000559D003F03D
:101F4000010602F49077374365D0C10705D0D1056B
:101F500003D5616C41F001016164410705D5D907E2
:101F600003D0616C41F002016164810705D5D90796
:101F700003D0616C41F004016164010707D502F0F0
:101F80002001314303D0616C41F008016164616C50
:101F900000293AD0800604D5900602D5204600F0EC
:101FA00048FD20684069616CC0F38010090700D4C7
:101FB00060B3204600F008FD20684069400621D546
:101FC0002068143050E8001F21F0400140E8001262
:101FD000002AF5D1E06BA8B16E490165E06BFEF710
:101FE00050FF002811D0E06B016D01B0BDE8F0405A
:101FF000084783060FD593060DD52046BDE8F84067
:1020000000F017BD2046FFF78DFFF8BD2046FFF713
:1020100089FF6564F8BD266B2023012E7DD1C6069D
:102020007BD5D60679D508684868009048694FF096
:102030000206400641D5E16B086840680004000CC8
:10204000E8D0A28D8242E5D9E085C869B0F5807FED
:102050002DD020680C3050E8001F21F4807140E83A
:102060000012002AF5D12068143050E8001F21F03A
:10207000010140E80012002AF5D12068143050E830
:10208000001F21F0400140E80012002AF5D184F839
:102090004230256320680C3050E8001F21F0100109
:1020A00040E80012002AF5D1E06BFEF7A1FE66635E
:1020B000A08DE18D401A81B22AE0A08DE18D401AF9
:1020C00081B2E08D0028A5D00029A3D022680C326F
:1020D00052E8000F20F4907042E80007002FF5D17D
:1020E0002068143050E8002F22F0010240E8002759
:1020F000002FF5D184F84230256320680C3050E879
:10210000002F22F0100240E80023002BF5D1666377
:102110002046FFF7CEFEF8BDFFE705062BD51506D6
:1021200029D594F841002128F5D1A068B0F5805F49
:1021300001D12069B0B1206A411C21622168007878
:102140004860E08C401E0004000CE084E3D120686D
:10215000C16821F08001C1602068C16841F0400180
:10216000C160D8E7206A0088C0F308004860206A90
:10217000801C2062E5E74006CDD55006CBD5CA6865
:10218000204622F04002CA6084F8413000F0A0F8F6
:10219000C1E70000CB28000870B5040004D094F813
:1021A0004100002510B106E0012070BD84F84050C8
:1021B000204600F023F8242084F841002068C168FC
:1021C00021F40051C160204600F094FC20680169B0
:1021D00021F4904101612068416921F02A014161A7
:1021E0002068C16841F40051C1606564202084F812
:1021F000410084F842006563002070BD70B586B070
:10220000064614216846FEF7F3F9244930688842EF
:1022100042D123480025016841F0100101600068A7
:1022200000F0100005901E481438016841F00101CB
:1022300001600068694600F0010005904FF4C0603D
:1022400000900220CDE901050320039007200490AF
:102250001448FEF7CBFE154C134820604FF0006089
:10226000C4E901054014C4E9035065614FF44030EE
:10227000A561C4E9075020466562FEF715FE08B166
:10228000FEF771FBF463002205212520A663FFF70A
:102290004BF82520FFF73AF806B070BD001001405A
:1022A000443802400000024040640240F80200202E
:1022B00090F84230202B01D00220704721B11AB192
:1022C0000023036300F09CBC0120704770477047F7
:1022D0007047FEE77FB500241548009401940294EE
:1022E0001249039401604FF48031C0E90114046184
:1022F000047680F820400F49C0E90A140125C56121
:10230000C46080F830404561FEF7D6FB08B1FEF7A7
:102310002AFBCDE90045694605480294FEF726FBF5
:10232000002801D0FEF71FFB7FBD00000020014008
:10233000A40000200100000F0F4810B50D490160F6
:102340000621416000214FF400328160C0E9031290
:1023500012014261017641768176C176017741773B
:10236000FEF782FC002803D0BDE81040FEF7FBBA60
:1023700010BD00000064004004010020054808B5BD
:10238000016841F480010160006800F48000009061
:1023900008BD00003038024010B50E4A002101206F
:1023A00000F036FD0C4C0B4A0021E0606C3A0B4803
:1023B00000F0A6FD074A2060483A0021084800F0D6
:1023C0009FFD044A6060243A0021064800F098FD11
:1023D000A06010BD7C480008000000200126000815
:1023E0000D2600088126000870B586B014216846C5
:1023F000FEF7FEF81E480024016841F0200101604C
:10240000016801F020010591016841F0800101603F
:10241000016801F080010591016841F0040101604B
:10242000016801F004010591016841F001010160BA
:10243000016801F001010591016841F002010160AC
:1024400000680C4E00F002004FF400750590002269
:1024500029463046FEF7CAFE01200095CDE9010469
:10246000694630460394FEF7C1FD06B070BD00001A
:1024700030380240001402400F4810B50D49016089
:102480004FF48271416000218160C1604FF400729D
:102490000161C0E90512C1610162416281620A21E4
:1024A000C162FFF733FA002803D0BDE81040FEF701
:1024B0005ABA10BD003001402C0100200F4810B561
:1024C0000D4901604FF48271416000218160C1605B
:1024D0004FF400720161C0E90512C16101624162FD
:1024E00081620A21C162FFF711FA002803D0BDE81A
:1024F0001040FEF738BA10BD0038004084010020BB
:102500000F4810B50D4901604FF482714160002100
:102510008160C1604FF400720161C0E90512C161C0
:102520000162416281620A21C162FFF7EFF900286E
:1025300003D0BDE81040FEF716BA10BD003C0040C5
:10254000DC01002010B586B00024164800940194E8
:102550000294039404944FF080410594016042F288
:10256000CF01C0E901140921C0E903148461FFF718
:1025700001FB08B1FEF7F7F94FF48050009069466F
:102580000848FFF781FB08B1FEF7EDF9049404A9B0
:1025900004480594FFF7A6FA002801D0FEF7E3F9F6
:1025A00006B010BD3402002010B5134C11480C21A8
:1025B00020604FF4E13060600020A060E060C4E97A
:1025C0000401A061E0612046FFF7E6FD08B1FEF7D7
:1025D000CAF909484830FEF767FC07493222343906
:1025E0000548FFF765FE2068C16841F01001C16031
:1025F00010BD000000100140B0020020FEE7FEE721
:102600004FF47A74204600F0C7FBFBE7ACB02822F9
:10261000164909A8FDF7B2FF154C0BA920220D465B
:1026200068460894FDF7AAFFDDE90923012113A8F4
:10263000FEF736F92022294668460894FDF79EFFEA
:10264000DDE9092302211FA8FEF72AF9094D4FF4FD
:1026500000744FF4FA7608A0FDF7E2FE2146284602
:10266000FEF7BCFD304600F097FBF4E78C4800080D
:10267000012D0008001402403131310D0A00000024
:102680004FF47A74204600F087FBFBE710B54FF05B
:10269000E020006901F000FF012803D0BDE81040F0
:1026A00001F082BB10BD000030B593B03021684608
:1026B000FDF79EFF14210CA8FDF79AFF1D48002589
:1026C000016841F080510160006800F08050119075
:1026D0001948016841F4804101600068022400F457
:1026E0008040119001200090000401908001CDE90C
:1026F000064008AA0420A82182E813000B9068462F
:10270000FEF74EFF08B172B6FEE70CA90F2081E874
:1027100031004FF4A0500F904FF4805010900521DD
:102720000CA8FEF733FE002801D072B6FEE713B006
:1027300030BD00004038024000700040024801688F
:1027400041F470010160704788ED00E00148FFF737
:102750000ABB00005803002010B50948FFF703FB2F
:10276000074C20680069C043C00703D105480068D2
:1027700000F09AFB21686FF00100086110BD0000B5
:10278000340200200C000020F0B50268294C2A4DCC
:102790002A4E2B4F2B4B4FF0804CA04209D0604566
:1027A00007D0A84205D0B04203D0B84201D0984229
:1027B00004D122F0700E4A6842EA0E02A0421BD0F9
:1027C000604519D0A84217D0B04215D0B84213D0F6
:1027D000984211D01C4DA8420ED01C4DA8420BD0DF
:1027E0001B4DA84208D01B4DA84205D01A4DA84247
:1027F00002D01A4DA84203D122F44075CA682A4378
:102800004D6922F080022A4302608A68C2620A6827
:102810008262A04201D0984201D10969016301217D
:1028200041610169C90703D0016921F0010101611A
:10283000F0BD00000000014000040040000800401E
:10284000000C0040000401400040014000440140F1
:102850000048014000180040001C004000200040DB
:1028600010B5846842EA032224F47F440A432243D9
:10287000826010BD826822F070020A4342F00701B4
:102880008160704710B5036A046A24F00104046291
:10289000846924F0F00444EA021423F00A020A4393
:1028A0008461026210BD10B5036A046A24F010044A
:1028B0000462846923F0A00324F4704444EA0232E1
:1028C00043EA01118261016210BD10B5806B0021E5
:1028D000C185C184FFF726FB10BD70B5846B2068ED
:1028E000406994F84110C0F3C0100025212904D19B
:1028F00018B1E584204600F08EF82068406994F80D
:102900004210C0F38010222904D118B1E585204679
:1029100000F05AF8606C40F0100060642046FFF749
:1029200001FB70BD10B50146806B096809684FF066
:102930000002C9052ED4C28501680C3151E8003F60
:1029400023F4807341E80034002CF5D10168143180
:1029500051E8003F23F0010341E80034002CF5D199
:102960000168143151E8003F23F0400341E800348E
:10297000002CF5D1202180F84210016B012909D1EA
:1029800001680C3151E8003F23F0100341E80034A6
:10299000002CF5D14263016B012902D0FFF796FCB0
:1029A00010BD818DFFF785FA10BD10B5806B012138
:1029B0004163016B012902D0FFF789FC10BD818DB5
:1029C0004908FFF776FA10BD01680C3151E8002F75
:1029D00022F4907241E80023002BF5D101681431F4
:1029E00051E8002F22F0010241E80023002BF5D12D
:1029F000016B012909D101680C3151E8002F22F047
:102A0000100241E80023002BF5D1202180F842106C
:102A100000210163704701680C3151E8002F22F05A
:102A2000C00241E80023002BF5D1202180F841109D
:102A3000704708B590F84210222901D0022008BD45
:102A400082684FF480539A4201D1016921B1816AB1
:102A50009A421BD04AB10AE00268816A5268C2F306
:102A600008020A80816A891C08E0026972B1026862
:102A7000526802F07F020A70816A491C8162C18D2E
:102A8000491E0904090CC18503D01BE00268526885
:102A9000F1E70168CA6822F02002CA600168CA68CA
:102AA00022F48072CA6001684A6922F001024A6118
:102AB000202180F8421000214163026B012A03D0DB
:102AC000FFF704FC002008BD016301680C3151E8E8
:102AD000002F22F0100241E80023002BF5D10168FD
:102AE0000A68D20602D50A6849680091818DFFF70D
:102AF000E0F9E7E770B5044600680169E26821F48F
:102B00004051114301612169A068E269084361698C
:102B1000114308432168CA6849F20C639A4302438F
:102B2000CA6020684169A26921F440711143416182
:102B300031492068884202D03049884202D1FEF7EC
:102B4000EFFC01E0FEF7DCFCE269002319216425BB
:102B50003226B2F5004F626828D0A0FB0101930F26
:102B60009200FDF7E6FB0146B0FBF5F06FF01802AE
:102B7000504301EB800006EB0010B0FBF5F000F0D5
:102B8000F002B1FBF5F002EB0012B1FBF5F06FF0D3
:102B90001803584301EB800006EB0010B0FBF5F082
:102BA00000F00F0021681044886070BDA0FB010197
:102BB00092185B41FDF7BDFB0146B0FBF5F0020149
:102BC000B1FBF5F06FF01803584301EB800006EB02
:102BD000C000B0FBF5F000F0F80002EB4002B1FBE2
:102BE000F5F0584301EB800006EBC000B0FBF5F0B8
:102BF00000F00700D6E7000000100140001401407B
:102C000038B5816204468285002013466064222222
:102C100084F84220E56B1B4AEA63E56B1A4A2A6492
:102C2000E56B1A4AEA64E26B10650A462168E06BBC
:102C3000091DFEF7A3F9206801684068009020692B
:102C400048B120680C3050E8001F41F4807140E822
:102C50000012002AF5D12068143050E8001F41F01E
:102C6000010140E80012002AF5D12068143050E834
:102C7000001F41F0400140E80012002AF5D1002079
:102C800038BD000025290008AB290008DB28000812
:102C900038B50F4800680168C943C90613D40168F4
:102CA0000024406800900A48FFF704F909490AA087
:102CB000FDF7B6FB074832220146046044600481F8
:102CC0000348FFF7F5FABDE838400148FFF72CB993
:102CD000B00200207C02002025730000FEE70907F7
:102CE000090E002804DB00F1E02080F80014704792
:102CF00000F00F0000F1E02080F8141D70477047CD
:102D000008B5012300930C4B1860586000209860B0
:102D1000C3E9030108496B4601F11800FDF726FFDE
:102D200008B1012008BD04481830FDF787FF0328CB
:102D3000F9D1002008BD0000EC00002003490A681A
:102D40005206FCD5C2B24A60704700000010014034
:102D5000FEF760FAFFF7A8FCFFF746FBFFF70EFB54
:102D6000FFF7B8FAFFF7E8FAFFF786FBFFF7A6FBD5
:102D7000FFF7C6FBFFF7E6FBFFF716FC04A0FDF725
:102D80004FFB00F017F8FFF707FB00F025F8FEE710
:102D900073746172740D0A0010B5EFF3058111B1FF
:102DA0006FF0050403E0002408B100F09DFE20460A
:102DB00010BD0000EFF3058010B16FF00500704703
:102DC0000448016811B14FF0FF30704701210160E4
:102DD000002070477400002010B5EFF3058010B19B
:102DE0006FF0050010BD08480168012902D04FF0BE
:102DF000FF3010BD054A002182F8141D0221016038
:102E000000F0DAFE002010BD740000200BE000E0AE
:102E1000F8B5144603460E464FF00005EFF3058063
:102E200098BB93B39E423DD84CB1A0680028E0689F
:102E300003D0502836D3012002E008B132E0002050
:102E4000012B05D010B31846A26800F0E0FF20E087
:102E500040B103200090002211460120A36801F038
:102E600017F804E003220021012000F0F0FF050024
:102E700018D086B100231A46194601F081F80128BE
:102E800009D0284600F0E2FD00250BE0184600F0CE
:102E9000A1FF050006D00CB1216800E00021284602
:102EA00000F0C0FD2846F8BD38B50024E51E002816
:102EB0000BD000BFEFF30581A9B100210091694655
:102EC00001F06DF9012815D102E06FF0030412E062
:102ED000009880B109494FF080500860BFF34F8FD0
:102EE000BFF36F8F07E000231A46194601F048F838
:102EF000012800D02C46204638BD000004ED00E03B
:102F00002DE9FF414FEA01034FF00005EFF3058182
:102F1000039549BB40B38027182100244AB31668A3
:102F200006B1344696691EB13146761E382E02D25D
:102F30001679F60703D0002004B0BDE8F081566989
:102F400006B1B708D2F808C0BCF1000F0DD0D568A3
:102F50005C2D18D312693AB136B18DE806103A46A5
:102F6000214601F06EFA03900DE0D6685EB9126951
:102F70004AB903AACDE90012BAB2214601F034FAE7
:102F8000012800D003950398D6E700002DE9F04111
:102F9000134C0F460546E6682068001D00F044FC0F
:102FA000681C07D137B12168BDE8F0410D48091D03
:102FB00000F08ABC20683544B5424560216805D2DE
:102FC000A06BBDE8F041091D00F066BC606B091DF7
:102FD00000F062FCA06A854200D2A562BDE8F081E3
:102FE00024000020900800202DE9F041054600F063
:102FF00077FC2D4CA068401CA06020682B4F10B1BE
:10300000606930B32BE02560A068012827D1002635
:1030100006EB860007EB800000F030FC761C382EB3
:10302000F6D3234800F02AFC2148143000F026FC97
:103030001F48283000F022FC1D483C3000F01EFCE8
:103040001B48503000F01AFC194860631430A0632C
:1030500005E02068E96AC06A884200D82560606A95
:10306000401C60626864E86A2169884200D9206176
:1030700000EB800007EB8000291D00F025FC00F02C
:103080004FFC606900280CD02068E96AC06A884259
:1030900007D208494FF080500860BFF34F8FBFF34D
:1030A0006F8FBDE8F081000024000020E0030020C5
:1030B0004008002004ED00E038B500F011FC104C91
:1030C0002068C8B90F4800F0D9FB0E48143000F052
:1030D000D5FB0C48E060143020610A4B0020F03B27
:1030E000009003F1500210210A2000F0D1FE206070
:1030F00010B105A100F096FCBDE8384000F010BC0E
:103100006000002094090020546D725100000000FE
:1031100030B4026C0B46002A0BD0C1681144C16068
:103120008468A14201D30168C16030BC1846FDF734
:10313000E0B930BC70472DE9F041856B1746044675
:103140000026026C82B1C7B1E068FDF7D2F9E168F0
:10315000206C091AE1602268914202D2A168081A23
:10316000E060022F16D017E02068A8B9A06801F02F
:103170000BFA06460020A0600EE06068FDF7B9F982
:10318000216C606808446060A168884204D32068AC
:10319000606001E005B16D1E6D1CA5633046BDE8A1
:1031A000F08110B5044690F8590058B101280CD0B0
:1031B00002280FD0502080F31188BFF34F8FBFF348
:1031C0006F8FFEE7206B00F0BFFB2046BDE810408C
:1031D00000F0BABB10BD000010484FF47051420718
:1031E00006D0C01D0D4920F00700411AC1F57051ED
:1031F0000B4A00230144C2E900030839183A21F0C0
:10320000070111604B600B600B1AC0E9001393605B
:103210004FF0004053605061704700007410002070
:1032200090000020144E154CA6F29C474FF0805899
:10323000DFF84C9012E000BF00F052FBF068C56868
:10324000281D00F0F1FAA068401EA0606068401ED2
:10325000606000F065FB2846FFF7A3FF6068002868
:10326000EAD138680128F9D9C9F80080BFF34F8F37
:10327000BFF36F8FF2E700007C08002024000020DD
:1032800004ED00E070B51D46049C51B1C4F8002067
:10329000C4E90F010121204600F02EFE84F84C50B5
:1032A00070BD2460F4E700002DE9F05F8846DDE999
:1032B0000B941546834691009A460A9EA522206BE0
:1032C000FDF78EF96FF00301206B01EB85010844D7
:1032D00020F00707780707D0502080F31188BFF34C
:1032E0004F8FBFF36F8FFEE70025B8F1000F0FD0AF
:1032F0005FF00000221818F8001082F8341018F857
:10330000001011B1401C1028F4D384F8435001E0A0
:1033100084F83450382E00D33726E662C4E91365AA
:10332000201D00F0B6FA04F1180000F0B2FA246192
:10333000C6F138006462A061656584F85850524651
:103340005946384600F05AFA2060B9F1000F01D012
:10335000C9F80040BDE8F09F30B5114900E01146C2
:103360000A688242FBD34B685C18844203D14068F0
:1033700018444860084643681C18944209D1084C18
:10338000183C2468A24209D052681A4442600A6874
:1033900012680260814200D0086030BD0460F9E725
:1033A0009000002070B5002441600B4D00619142F7
:1033B00006D8D11A8269914206D2011D286907E018
:1033C0009A4203D2994201D3012403E0011DE86827
:1033D00000F062FA204670BD6000002010B504467F
:1033E00000F07EFAA06B28B15FF0000400F098FABC
:1033F000204610BD0124F9E730B589B03C4D6EE0A0
:103400000498002806DADDE90601059A9047049839
:10341000002864DB069C606910B1201D00F004FAEE
:1034200003A800F0D7F8024604980A2857D2DFE82C
:1034300000F00505052D334A05052D3394F82800C5
:1034400040F0010084F828000599A069059B01441B
:103450002046FFF7A7FF68B3216A2046884794F803
:10346000280040073BD5002000900598A169002363
:1034700042181946204601F091F9D8B9502080F33E
:103480001188BFF34F8FBFF36F8FFEE714F8280F3B
:1034900020F00100207022E094F8280040F00100A4
:1034A00084F828000598A06128B1811813462046A9
:1034B000FFF778FF13E0502080F31188BFF34F8FA0
:1034C000BFF36F8FFEE794F82800810703D42046EE
:1034D00000F03AFA03E020F0010084F8280000220E
:1034E00004A9286800F0AAFE002889D109B030BDDF
:1034F000600000202DE9FC410F46054600F0A0FBCE
:1035000001A800F067F80446019818B101F0B4F87A
:10351000BDE8FC81254EAFB130690068D0B300270B
:10352000291B3A46306800F0BDFA01F0A5F80028E2
:10353000EED11F494FF080500860BFF34F8FBFF3AB
:103540006F8FE5E7A542EBD801F096F8F0682746C3
:10355000C068C468201D00F067F994F8280041078E
:1035600019D5A0692B4641193A462046FFF71AFFA4
:10357000A8B100200346014600902A46204601F0EB
:103580000DF960B9502080F31188BFF34F8FBFF35E
:103590006F8FFEE707E020F0010084F82800216A21
:1035A00020468847B4E70127BAE700006000002002
:1035B00004ED00E00648416B096829B1416BC96818
:1035C000C9684968816270474FF0FF31FAE700002F
:1035D0002400002070B5054600F06CFF064E04463E
:1035E000B068844203D200F009F8012000E0002016
:1035F00028602046B46070BD60000020F8B5194D09
:1036000020E0C068C4680668201D00F00DF9216A3A
:103610002046884794F82800400713D5A069304415
:10362000B04206D924616060211DE86800F034F9D9
:1036300008E000200346014600903246204601F093
:10364000ADF838B1E86801680029DAD12969C5E91F
:103650000310F8BD502080F31188BFF34F8FBFF3E4
:103660006F8FFEE76000002008484068401C4FF064
:10367000500080F3118804D0BFF34F8FBFF36F8FDA
:10368000FEE7BFF34F8FBFF36F8FFEE79800002078
:10369000074CE068016841B1C0680021D0F8000023
:1036A000FFF728FFFFF7A8FEF3E701210020F7E767
:1036B000600000202DE9F041044600F011F994F972
:1036C000455004F1240609E0606A48B1304600F034
:1036D0009BFF08B100F036FA6D1E6DB2002DF3DCD1
:1036E0004FF0FF3684F8456000F01AF900F0F8F862
:1036F00094F9445004F1100709E0206948B13846B4
:1037000000F082FF08B100F01DFA6D1E6DB2002DB1
:10371000F3DC84F84460BDE8F04100F001B900003A
:103720002DE9F0410546002700F08AFA324E306854
:1037300008B9FFF751FD706905424ED1C5B3083590
:1037400068070ED005F00700C0F1080005446807BF
:1037500007D0502080F31188BFF34F8FBFF36F8FD6
:10376000FEE72DB37068854237D8234818300146EC
:103770000C6801E020460C466168A94202D221682B
:103780000029F7D131688C4227D007682168016091
:1037900060680837411B10290FD96019420708D00B
:1037A000502080F31188BFF34F8FBFF36F8FFEE778
:1037B00013E041606560FFF7CFFD61687068401AF3
:1037C0007060B268904200D2B0607069014300201E
:1037D000C4E90001F068401CF06000F04DFF78077C
:1037E00007D0502080F31188BFF34F8FBFF36F8F46
:1037F000FEE73846BDE8F0817800002010B5031FD1
:103800004FF080741C601B1F21F001011960191F0B
:10381000044B0B6014390A60091F6FF00202443830
:103820000A6010BD69360008D0E9013201699A606A
:10383000D0E901235A604A68824201D182684A6015
:10384000002202610868401E086008687047000096
:10385000034B036003F15C00086080201060704738
:10386000BC090020044B036003F15C0008604FF4C6
:103870008070106070470000180C002000F10801F3
:103880004FF0FF32C0E90112C16001610021016007
:10389000704700210161704730B50B685A1C02D097
:1038A00000F1080202E0026904E02246546825683B
:1038B0009D42FAD953684B6099608A6051600861F3
:1038C0000168491C016030BD42684A6093688B60A2
:1038D00093685960916008610168491C01607047F4
:1038E000502080F31188BFF34F8FBFF36F8F0A49C9
:1038F0004868401C486001280CD10848006810F056
:10390000FF0F07D0502080F31188BFF34F8FBFF314
:103910006F8FFEE7704700009800002004ED00E084
:103920000849486828B1401E486001D180F31188D9
:103930007047502080F31188BFF34F8FBFF36F8F14
:10394000FEE700009800002070B500282AD0164D30
:10395000A0F1080460686969084207D1502080F32B
:103960001188BFF34F8FBFF36F8FFEE722683AB124
:10397000502080F31188BFF34F8FBFF36F8FFEE7A6
:103980008843606000F05CF96068696808446860BA
:103990002046FFF7E1FC2869401C2861BDE8704023
:1039A00000F06ABE70BD0000780000204FF0E020FB
:1039B00000210161816105494FF47A720968B1FB08
:1039C000F2F1491E4161072101617047200000208A
:1039D00010B5FCF789FC114910280ED300F1E02046
:1039E00090F8F0030A78904207D2502080F31188B3
:1039F000BFF34F8FBFF36F8FFEE7094800688968F8
:103A000000F4E060884207D9502080F31188BFF3AA
:103A10004F8FBFF36F8FFEE710BD000098000020AE
:103A20000CED00E010B5084B002200BF53F8324007
:103A30001CB1521C082AF9D310BD43F8321003EB15
:103A4000C201486010BD0000A003002010B50400B2
:103A50000AD000F013F894F8460000280CD1204654
:103A6000BDE81040FFF770BF502080F31188BFF30E
:103A70004F8FBFF36F8FFEE710BD0000084A002193
:103A800002EBC1035B68834206D1002042F831009B
:103A900002EBC10148607047491C0829F0D3704708
:103AA000A003002070B515460E460446FFF718FF28
:103AB00094F944100020491C01D184F8440094F981
:103AC0004510491C01D184F84500FFF729FFA06B80
:103AD00028B92A46314604F1240000F051F8204666
:103AE000BDE87040FFF7E6BD10B5020014D00F48E6
:103AF000006B38B1502080F31188BFF34F8FBFF3B4
:103B00006F8FFEE700F09CF800211046FFF73EFAA9
:103B100000F0B2FD002807D105494FF08050086041
:103B2000BFF34F8FBFF36F8F10BD00002400002044
:103B300004ED00E002490A6A0260C968416070470A
:103B40002400002001490120C861704724000020A2
:103B500010B50C4650B1094909681831FFF79CFEB1
:103B60002046BDE810400121FFF710BA502080F335
:103B70001188BFF34F8FBFF36F8FFEE72400002043
:103B800070B514460D4668B10A4909681831FFF747
:103B90009BFE0CB14FF0FF3521462846BDE8704032
:103BA000FFF7F4B9502080F31188BFF34F8FBFF3B4
:103BB0006F8FFEE72400002030B587B00024039407
:103BC00005AA04A903A80494FFF742FEDDE9030156
:103BD0000094CDE90110002315A11748059A00F0C3
:103BE00030FC164D0028E8621FD000F0A7FD012828
:103BF00009D0401C19D1502080F31188BFF34F8F9A
:103C0000BFF36F8FFEE7502080F31188BFF34F8F13
:103C1000BFF36F8F4FF0FF30A86201206861EC6046
:103C200007B0BDE8304000F045B807B030BD000037
:103C300049444C45000000002532000824000020C3
:103C40000248016B491C01637047000024000020FA
:103C5000164810B5016B11B10121C16110BD0021E1
:103C6000C1610169124A01E0B9B1491E01EB81034A
:103C700052F82330002BF7D001EB810302EB8302D3
:103C800002F1080453685B685360A34201D15B688A
:103C90005360DA680260016110BD502080F3118822
:103CA000BFF34F8FBFF36F8FFEE7000024000020AB
:103CB000E00300201CB537480168374A914207D11C
:103CC000502080F31188BFF34F8FBFF36F8FFEE753
:103CD00000683149491E884207D1502080F311887D
:103CE000BFF34F8FBFF36F8FFEE72C490878019029
:103CF000FF20087008788DF800009DF800009DF8FE
:103D0000002000F0F000904207D0502080F311888E
:103D1000BFF34F8FBFF36F8FFEE79DF80000204C7D
:103D200000F0500020700720A06005E09DF8002002
:103D300052008DF80020401E9DF800201206F5D498
:103D4000A060032807D0502080F31188BFF34F8F65
:103D5000BFF36F8FFEE74FF44070A06001980870CA
:103D60000C482030016841F470010160016841F0A5
:103D700070410160FFF71AFE00206060FCF77CFADA
:103D80000848016841F040410160FCF761FA0020F9
:103D90001CBD000000ED00E071C20F4100E400E036
:103DA0009800002034EF00E010B5502080F3118817
:103DB000BFF34F8FBFF36F8F00F082FB18B1044940
:103DC0004FF080500860002080F3118810BD000083
:103DD00004ED00E010B50C4648B184420FD95020E4
:103DE00080F31188BFF34F8FBFF36F8FFEE7502032
:103DF00080F31188BFF34F8FBFF36F8FFEE702226E
:103E0000002100F024F8002800D0846310BD38B5EC
:103E10000C4648B184420FD9502080F31188BFF37B
:103E20004F8FBFF36F8FFEE7502080F31188BFF3F1
:103E30004F8FBFF36F8FFEE70221134600220091E0
:103E4000114600F025F8002800D0846338BDF8B58D
:103E500017460E46050013D005FB06F05030FFF75D
:103E60005FFC04000AD0002084F8460004F15002F0
:103E70003B46314628460094FFF704FA2046F8BD39
:103E8000502080F31188BFF34F8FBFF36F8FFEE791
:103E900038B5049D18B153B1CAB181B120E05020AA
:103EA00080F31188BFF34F8FBFF36F8FFEE7502071
:103EB00080F31188BFF34F8FBFF36F8FFEE7502061
:103EC00080F31188BFF34F8FBFF36F8FFEE739B1D7
:103ED000502080F31188BFF34F8FBFF36F8FFEE741
:103EE00050241C46012384F846302B460094FFF7EB
:103EF000C9F9204638BD000070B50D46040025D034
:103F0000FFF7EEFCD4E90F20216802FB0011A1604D
:103F10000021A163216861600A46D4E90F01401EB7
:103F200000FB0121E16021464FF0FF3001F8440F12
:103F3000487004F110008DB1FFF7A0FC04F12400DB
:103F4000FFF79CFCFFF7ECFC012070BD502080F3D4
:103F50001188BFF34F8FBFF36F8FFEE721690029F0
:103F6000F0D000F051FB0028ECD004494FF0805015
:103F70000860BFF34F8FBFF36F8FE3E704ED00E0FE
:103F80002DE9FF4782B01D468A464FF00008040025
:103F900003D0BAF1000F08D011E0502080F311884F
:103FA000BFF34F8FBFF36F8FFEE7206C38B1502007
:103FB00080F31188BFF34F8FBFF36F8FFEE7022DA1
:103FC0000AD1E06B012807D0502080F31188BFF39D
:103FD0004F8FBFF36F8FFEE700F05EFA3F4F4FF059
:103FE00000094FF0805648B9049838B1502080F34A
:103FF0001188BFF34F8FBFF36F8FFEE7FFF770FCA1
:10400000A06BE16B884207D3022D05D00498D0B194
:10401000B8F1000F1AD01EE02A4651462046FFF79D
:104020008AF8616A19B104F1240000F0EDFA20B1B8
:104030003E60BFF34F8FBFF36F8FFFF771FC01201E
:1040400006B0BDE8F087FFF76BFC22E06846FFF79B
:1040500071FD4FF00108FFF763FCFFF7F1FDFFF77B
:104060003FFC94F94400401C01D184F8449094F939
:104070004500401C01D184F84590FFF751FC04A98C
:10408000684600F077F930B12046FFF713FB00F0E7
:10409000F3FA0020D4E7FFF723FCA06BE16B884222
:1040A00013D1FFF73DFC04F110000499FFF750FD18
:1040B0002046FFF7FFFA00F0DFFA00289ED13E60AD
:1040C000BFF34F8FBFF36F8F98E7FFF729FC2046B0
:1040D000FFF7F0FA00F0D0FA90E7000004ED00E0FE
:1040E0002DE9F0471F4690468946040003D0B9F1F8
:1040F000000F08D011E0502080F31188BFF34F8FDC
:10410000BFF36F8FFEE7206C38B1502080F3118829
:10411000BFF34F8FBFF36F8FFEE7022F0AD1E06B23
:10412000012807D0502080F31188BFF34F8FBFF3D1
:104130006F8FFEE7FFF74CFC5020EFF3118680F302
:104140001188BFF34F8FBFF36F8FA06BE16B884275
:1041500006D3022F04D0002086F31188BDE8F08733
:1041600094F94550A06B3A4649462046FEF7E3FFD6
:10417000681C04D06D1C84F845500120ECE7606A8F
:104180000028FAD004F1240000F03EFA0028F4D010
:10419000B8F1000FF1D00121C8F80010EDE770B5BB
:1041A0000E46040009D0206C78B1502080F31188AD
:1041B000BFF34F8FBFF36F8FFEE7502080F311885E
:1041C000BFF34F8FBFF36F8FFEE7206848B9A06839
:1041D00038B1502080F31188BFF34F8FBFF36F8F3A
:1041E000FEE7FFF7F5FB5020EFF3118580F3118810
:1041F000BFF34F8FBFF36F8FA16BE06B884218D96D
:1042000094F94500491CA163411C04D0401C84F86A
:10421000450001200EE0606A0028FAD004F1240075
:1042200000F0F2F90028F4D0002EF2D00120306026
:10423000EFE7002085F3118870BD00002DE9F747F6
:10424000002683B08A46040003D0BAF1000F08D0DC
:1042500011E0502080F31188BFF34F8FBFF36F8FB1
:10426000FEE7206C38B1502080F31188BFF34F8FE8
:10427000BFF36F8FFEE700F00FF9DFF8F4804FF027
:1042800000094FF0805748B9059838B1502080F3A5
:104290001188BFF34F8FBFF36F8FFEE7FFF720FB4F
:1042A000A56BC5B151462046FEF732FF6D1EA563D2
:1042B000206950B104F1100000F0A6F928B1C8F847
:1042C0000070BFF34F8FBFF36F8FFFF729FB012003
:1042D00006B0BDE8F087059808B11EB106E0FFF70B
:1042E0001FFB27E06846FFF725FC0126FFF718FBB8
:1042F000FFF7A6FCFFF7F4FA94F94400401C01D143
:1043000084F8449094F94500401C01D184F845900C
:10431000FFF706FB05A9684600F02CF800282046A8
:104320000AD0FFF7C7F900F0A7F92046FFF756F8C3
:104330000028B3D00020CBE7FFF750F890B104F18C
:1043400024000599FFF704FC2046FFF7B3F900F0BD
:1043500093F90028A2D1C8F80070BFF34F8FBFF3C4
:104360006F8F9BE72046FFF7A5F900F085F995E7E9
:1043700004ED00E02DE9F0410C46050011D0C4B178
:10438000FFF7AEFA174BDA686E682068911B471C7E
:1043900017D02F681B6A9F4219D0964217D8012464
:1043A00010E0502080F31188BFF34F8FBFF36F8F61
:1043B000FEE7502080F31188BFF34F8FBFF36F8F5C
:1043C000FEE70024FFF7ACFA2046BDE8F081884202
:1043D00005D9401A20602846FFF7ACFBF1E7002022
:1043E0002060DCE7240000202DE9FF5F8346DDE943
:1043F0000E87994616468A469000FFF791F9050008
:104400001CD05C20FFF78CF9040014D00020256339
:1044100084F85900CDE90240CDE900874B46324689
:1044200051465846FEF740FF2046FEF7DDFD0120CD
:1044300004B0BDE8F09F2846FFF786FA4FF0FF3042
:10444000F6E7F0B585B0DDE90B640A9DA6B1DCB1F5
:104450005C2700972663022684F85960002604AF83
:10446000CDE90246CDE90057FEF71EFF2046FEF7D4
:10447000BBFD049805B0F0BD502080F31188BFF358
:104480004F8FBFF36F8FFEE7502080F31188BFF38B
:104490004F8FBFF36F8FFEE70548416919B1006B7D
:1044A00018B10020704701207047022070470000BB
:1044B000240000200148C06870470000240000204C
:1044C0002DE9F0412E4C0027206B28B1A069401C3B
:1044D000A0613846BDE8F081E668761CE66013D13D
:1044E000606B006838B1502080F31188BFF34F8FA4
:1044F000BFF36F8FFEE7606BA16B6163A063206AFF
:10450000401C2062FFF756F8A06ADFF878808642E8
:1045100009D3606B0068A0B1606BC068C56868684B
:10452000864211D2A0622068C06A00EB800158F870
:104530002100012800D90127E0690028C9D00127FE
:10454000C7E74FF0FF30EDE7281DFFF76DF9A86AC8
:1045500018B105F11800FFF767F9E86A2169884288
:1045600000D9206100EB800108EB8100291DFFF7D5
:10457000ABF9E86A2168C96A8842CAD30127C8E74B
:1045800024000020E003002070B504004FF000017B
:1045900033D01B4D2868844207D0502080F3118807
:1045A000BFF34F8FBFF36F8FFEE7206D38B1401E12
:1045B0002065E36CE26A9A421FD040B11DE05020B2
:1045C00080F31188BFF34F8FBFF36F8FFEE7201D7D
:1045D000FFF72AF9E06CE062C0F13800A061E06A00
:1045E0002969884200D92861064900EB800001EB67
:1045F0008000211DFFF768F90121084670BD000009
:1046000024000020E003002070B5C068C46854B1E5
:1046100004F118000646FFF707F9144D286B50B156
:104620003146134815E0502080F31188BFF34F8FB7
:10463000BFF36F8FFEE7201DFFF7F6F8E06A2969E8
:10464000884200D928610B4900EB800001EB800013
:10465000211DFFF739F9E06A2968C96A884202D941
:104660000120E86170BD002070BD00002400002022
:1046700068080020E00300202DE9F0472C4D0024BD
:104680002746286B38B1FFF72BF9286B401E2863AB
:10469000286B40B146E0502080F31188BFF34F8F64
:1046A000BFF36F8FFEE7A968224E0120D1B3A6F5B4
:1046B000916980463068E0B1F068C46804F1180080
:1046C000FFF7B2F8201DFFF7AFF8E06A29698842CA
:1046D00000D9286100EB800109EB8100211DFFF763
:1046E000F3F8E06A2968C96A8842E3D3C5F81C80F8
:1046F000E0E70CB1FEF75EFFAC694CB14FEA08068B
:10470000FFF7DEFE00B1EE61641EF9D10020A86162
:10471000E86938B10849012738070860BFF34F8FAF
:10472000BFF36F8FFFF7FCF83846BDE8F087000055
:10473000240000206808002004ED00E010B586B0D9
:10474000FEF7BAFC114C2068B8B100200390049029
:1047500005AA04A903A8FFF785F8DDE903210220D3
:104760008DE8070000230AA10B48059AFFF769FEB0
:10477000606010B106B0012010BD502080F3118898
:10478000BFF34F8FBFF36F8FFEE700006000002084
:10479000546D722053766300913600082DE9FF4175
:1047A0001E46134602000A9D4FF0000016D0144C1E
:1047B0002768002F0FD0CDE900130292062917DADF
:1047C000FFF76AFE02284FF000030FD0002269466F
:1047D0002068FFF7D5FB04B0BDE8F081502080F3DE
:1047E0001188BFF34F8FBFF36F8FFEE72A46EEE7C6
:1047F0000023324669463846FFF772FCEBE70000BB
:10480000600000204FF04070E1EE100A7047000099
:10481000DC4800080000000000000000000000006C
:10482000000000000002000018000000000000006E
:1048300000000000E8480008000000000000000040
:104840000000000000000000000200003000000036
:104850000000000000000000F84800080000000010
:104860000000000000000000000000000002000046
:10487000280000000000000000000000D4480008EC
:10488000000000000000000000000000000048C11F
:1048900000004841000048C200004842000082C2B7
:1048A00000008242000000000000FA430000000007
:1048B0000000A040000610160006101600000000C0
:1048C00000000000010203040607080900000000C0
:1048D0000102030473656D310000000064656661C8
:1048E000756C745461736B004D6F746F72436F6EAF
:1048F00074726F6C000000005043636F6D00000025
:104900002049000800000020A4000000C4010008A5
:10491000C4490008A400002034520000E00100084F
:104920000000000000000000000000000000000087
:104930000000000001000000100000000000000066
:104940000024F4000000000000000000000000004F
:104950000000000000000000000000000000000057
:104960000000000000000000000000000000000047
:104970000000000000000000000000000000000037
:104980000000000000000000000000000000000027
:104990000000000000000000000000000000000017
:1049A0000000000000000000000000000000000007
:1049B000000000000000000000000000AAAAAAAA4F
:0449C00000000000F3
:040000050800018965
:00000001FF
